{
  "_format": "hh-sol-artifact-1",
  "contractName": "BountyDispenserGasless",
  "sourceName": "contracts/BountyDispenserGasless.sol",
  "abi": [
    {
      "inputs": [
        {
          "internalType": "address",
          "name": "badgeAddress",
          "type": "address"
        }
      ],
      "stateMutability": "nonpayable",
      "type": "constructor"
    },
    {
      "inputs": [],
      "name": "ReentrancyGuardReentrantCall",
      "type": "error"
    },
    {
      "anonymous": false,
      "inputs": [
        {
          "indexed": true,
          "internalType": "uint256",
          "name": "id",
          "type": "uint256"
        },
        {
          "indexed": true,
          "internalType": "address",
          "name": "developer",
          "type": "address"
        },
        {
          "indexed": false,
          "internalType": "uint256",
          "name": "reward",
          "type": "uint256"
        },
        {
          "indexed": false,
          "internalType": "string",
          "name": "message",
          "type": "string"
        }
      ],
      "name": "BountyApproved",
      "type": "event"
    },
    {
      "anonymous": false,
      "inputs": [
        {
          "indexed": true,
          "internalType": "uint256",
          "name": "id",
          "type": "uint256"
        },
        {
          "indexed": false,
          "internalType": "string",
          "name": "message",
          "type": "string"
        }
      ],
      "name": "BountyClosed",
      "type": "event"
    },
    {
      "anonymous": false,
      "inputs": [
        {
          "indexed": true,
          "internalType": "uint256",
          "name": "id",
          "type": "uint256"
        },
        {
          "indexed": true,
          "internalType": "address",
          "name": "creator",
          "type": "address"
        },
        {
          "indexed": false,
          "internalType": "uint256",
          "name": "reward",
          "type": "uint256"
        }
      ],
      "name": "BountyCreated",
      "type": "event"
    },
    {
      "anonymous": false,
      "inputs": [
        {
          "indexed": true,
          "internalType": "uint256",
          "name": "id",
          "type": "uint256"
        },
        {
          "indexed": true,
          "internalType": "address",
          "name": "developer",
          "type": "address"
        },
        {
          "indexed": false,
          "internalType": "string",
          "name": "message",
          "type": "string"
        }
      ],
      "name": "BountyRejected",
      "type": "event"
    },
    {
      "anonymous": false,
      "inputs": [
        {
          "indexed": true,
          "internalType": "uint256",
          "name": "id",
          "type": "uint256"
        },
        {
          "indexed": true,
          "internalType": "address",
          "name": "developer",
          "type": "address"
        },
        {
          "indexed": false,
          "internalType": "string",
          "name": "proof",
          "type": "string"
        }
      ],
      "name": "ProofSubmitted",
      "type": "event"
    },
    {
      "inputs": [],
      "name": "badgeNFT",
      "outputs": [
        {
          "internalType": "contract GitBountyBadge",
          "name": "",
          "type": "address"
        }
      ],
      "stateMutability": "view",
      "type": "function"
    },
    {
      "inputs": [
        {
          "internalType": "uint256",
          "name": "",
          "type": "uint256"
        }
      ],
      "name": "bounties",
      "outputs": [
        {
          "internalType": "uint256",
          "name": "id",
          "type": "uint256"
        },
        {
          "internalType": "address",
          "name": "creator",
          "type": "address"
        },
        {
          "internalType": "uint256",
          "name": "rewardAmount",
          "type": "uint256"
        },
        {
          "internalType": "string",
          "name": "githubIssueUrl",
          "type": "string"
        },
        {
          "internalType": "bool",
          "name": "isOpen",
          "type": "bool"
        },
        {
          "internalType": "string",
          "name": "badgeURI",
          "type": "string"
        },
        {
          "internalType": "address",
          "name": "winner",
          "type": "address"
        }
      ],
      "stateMutability": "view",
      "type": "function"
    },
    {
      "inputs": [
        {
          "internalType": "uint256",
          "name": "_id",
          "type": "uint256"
        },
        {
          "internalType": "string",
          "name": "_proof",
          "type": "string"
        }
      ],
      "name": "claimBounty",
      "outputs": [],
      "stateMutability": "nonpayable",
      "type": "function"
    },
    {
      "inputs": [
        {
          "internalType": "uint256",
          "name": "_id",
          "type": "uint256"
        }
      ],
      "name": "closeBounty",
      "outputs": [],
      "stateMutability": "nonpayable",
      "type": "function"
    },
    {
      "inputs": [
        {
          "internalType": "string",
          "name": "issueUrl",
          "type": "string"
        },
        {
          "internalType": "string",
          "name": "_badgeURI",
          "type": "string"
        }
      ],
      "name": "createBounty",
      "outputs": [
        {
          "internalType": "uint256",
          "name": "",
          "type": "uint256"
        }
      ],
      "stateMutability": "payable",
      "type": "function"
    },
    {
      "inputs": [
        {
          "internalType": "uint256",
          "name": "_id",
          "type": "uint256"
        }
      ],
      "name": "getBountyWithClaims",
      "outputs": [
        {
          "internalType": "uint256",
          "name": "id",
          "type": "uint256"
        },
        {
          "internalType": "address",
          "name": "creator",
          "type": "address"
        },
        {
          "internalType": "uint256",
          "name": "reward",
          "type": "uint256"
        },
        {
          "internalType": "string",
          "name": "issueUrl",
          "type": "string"
        },
        {
          "internalType": "bool",
          "name": "open",
          "type": "bool"
        },
        {
          "internalType": "string",
          "name": "badgeURI",
          "type": "string"
        },
        {
          "internalType": "address",
          "name": "winner",
          "type": "address"
        },
        {
          "components": [
            {
              "internalType": "address",
              "name": "claimant",
              "type": "address"
            },
            {
              "internalType": "string",
              "name": "proofLink",
              "type": "string"
            },
            {
              "internalType": "bool",
              "name": "approved",
              "type": "bool"
            }
          ],
          "internalType": "struct BountyDispenserGasless.Claim[]",
          "name": "allClaims",
          "type": "tuple[]"
        }
      ],
      "stateMutability": "view",
      "type": "function"
    },
    {
      "inputs": [
        {
          "internalType": "uint256",
          "name": "_id",
          "type": "uint256"
        },
        {
          "internalType": "address",
          "name": "claimant",
          "type": "address"
        },
        {
          "internalType": "bool",
          "name": "approve",
          "type": "bool"
        },
        {
          "internalType": "string",
          "name": "msgForDev",
          "type": "string"
        }
      ],
      "name": "handleClaim",
      "outputs": [],
      "stateMutability": "nonpayable",
      "type": "function"
    },
    {
      "inputs": [],
      "name": "nextBountyId",
      "outputs": [
        {
          "internalType": "uint256",
          "name": "",
          "type": "uint256"
        }
      ],
      "stateMutability": "view",
      "type": "function"
    },
    {
      "stateMutability": "payable",
      "type": "receive"
    }
  ],
  "bytecode": "0x608060405260016003553480156200001657600080fd5b50604051620032473803806200324783398181016040528101906200003c919062000168565b6001600081905550600073ffffffffffffffffffffffffffffffffffffffff168173ffffffffffffffffffffffffffffffffffffffff1603620000b6576040517f08c379a0000000000000000000000000000000000000000000000000000000008152600401620000ad90620001fb565b60405180910390fd5b80600460006101000a81548173ffffffffffffffffffffffffffffffffffffffff021916908373ffffffffffffffffffffffffffffffffffffffff160217905550506200021d565b600080fd5b600073ffffffffffffffffffffffffffffffffffffffff82169050919050565b6000620001308262000103565b9050919050565b620001428162000123565b81146200014e57600080fd5b50565b600081519050620001628162000137565b92915050565b600060208284031215620001815762000180620000fe565b5b6000620001918482850162000151565b91505092915050565b600082825260208201905092915050565b7f426164676520636f6e7472616374207265717569726564000000000000000000600082015250565b6000620001e36017836200019a565b9150620001f082620001ab565b602082019050919050565b600060208201905081810360008301526200021681620001d4565b9050919050565b61301a806200022d6000396000f3fe60806040526004361061007f5760003560e01c8063c8fe58871161004e578063c8fe588714610138578063d22c4afc14610161578063dc2f8744146101a5578063fd14fad4146101e857610086565b80631a4265501461008b5780634348e0e9146100b45780636d2008a5146100df578063b988997f1461010f57610086565b3661008657005b600080fd5b34801561009757600080fd5b506100b260048036038101906100ad9190611afd565b610213565b005b3480156100c057600080fd5b506100c9610721565b6040516100d69190611bdc565b60405180910390f35b6100f960048036038101906100f49190611bf7565b610747565b6040516101069190611c87565b60405180910390f35b34801561011b57600080fd5b5061013660048036038101906101319190611ca2565b610987565b005b34801561014457600080fd5b5061015f600480360381019061015a9190611d45565b610ca9565b005b34801561016d57600080fd5b5061018860048036038101906101839190611ca2565b61141f565b60405161019c989796959493929190611ff5565b60405180910390f35b3480156101b157600080fd5b506101cc60048036038101906101c79190611ca2565b6117cd565b6040516101df9796959493929190612088565b60405180910390f35b3480156101f457600080fd5b506101fd61196c565b60405161020a9190611c87565b60405180910390f35b6000600160008581526020019081526020016000209050600073ffffffffffffffffffffffffffffffffffffffff168160010160009054906101000a900473ffffffffffffffffffffffffffffffffffffffff1673ffffffffffffffffffffffffffffffffffffffff16036102bd576040517f08c379a00000000000000000000000000000000000000000000000000000000081526004016102b490612151565b60405180910390fd5b8060040160009054906101000a900460ff1661030e576040517f08c379a0000000000000000000000000000000000000000000000000000000008152600401610305906121bd565b60405180910390fd5b8060010160009054906101000a900473ffffffffffffffffffffffffffffffffffffffff1673ffffffffffffffffffffffffffffffffffffffff163373ffffffffffffffffffffffffffffffffffffffff16036103a0576040517f08c379a000000000000000000000000000000000000000000000000000000000815260040161039790612229565b60405180910390fd5b600083839050116103e6576040517f08c379a00000000000000000000000000000000000000000000000000000000081526004016103dd90612295565b60405180910390fd5b600081600201541161042d576040517f08c379a000000000000000000000000000000000000000000000000000000000815260040161042490612301565b60405180910390fd5b600060026000868152602001908152602001600020905060005b81805490508110156105a6573373ffffffffffffffffffffffffffffffffffffffff1682828154811061047d5761047c612321565b5b906000526020600020906003020160000160009054906101000a900473ffffffffffffffffffffffffffffffffffffffff1673ffffffffffffffffffffffffffffffffffffffff1614801561050157508181815481106104e0576104df612321565b5b906000526020600020906003020160020160009054906101000a900460ff16155b1561059357848483838154811061051b5761051a612321565b5b9060005260206000209060030201600101918261053992919061258c565b503373ffffffffffffffffffffffffffffffffffffffff16867fb2217a1ebc8d6435d328a4607aa9709269fe4cb393535a1675721d8431a540188787604051610583929190612698565b60405180910390a350505061071c565b808061059e906126eb565b915050610447565b508060405180606001604052803373ffffffffffffffffffffffffffffffffffffffff16815260200186868080601f016020809104026020016040519081016040528093929190818152602001838380828437600081840152601f19601f82011690508083019250505050505050815260200160001515815250908060018154018082558091505060019003906000526020600020906003020160009091909190915060008201518160000160006101000a81548173ffffffffffffffffffffffffffffffffffffffff021916908373ffffffffffffffffffffffffffffffffffffffff16021790555060208201518160010190816106a59190612733565b5060408201518160020160006101000a81548160ff02191690831515021790555050503373ffffffffffffffffffffffffffffffffffffffff16857fb2217a1ebc8d6435d328a4607aa9709269fe4cb393535a1675721d8431a540188686604051610711929190612698565b60405180910390a350505b505050565b600460009054906101000a900473ffffffffffffffffffffffffffffffffffffffff1681565b600080341161078b576040517f08c379a000000000000000000000000000000000000000000000000000000000815260040161078290612851565b60405180910390fd5b600085859050116107d1576040517f08c379a00000000000000000000000000000000000000000000000000000000081526004016107c8906128bd565b60405180910390fd5b60008383905011610817576040517f08c379a000000000000000000000000000000000000000000000000000000000815260040161080e90612929565b60405180910390fd5b600060035490506000600160008381526020019081526020016000209050818160000181905550338160010160006101000a81548173ffffffffffffffffffffffffffffffffffffffff021916908373ffffffffffffffffffffffffffffffffffffffff160217905550348160020181905550868682600301918261089d92919061258c565b5060018160040160006101000a81548160ff02191690831515021790555084848260050191826108ce92919061258c565b5060008160060160006101000a81548173ffffffffffffffffffffffffffffffffffffffff021916908373ffffffffffffffffffffffffffffffffffffffff1602179055503373ffffffffffffffffffffffffffffffffffffffff16827f1b5e39b039983ddb5862b33842ac157179867c6df1a61f69c50465fd14017f6e3460405161095a9190611c87565b60405180910390a360036000815480929190610975906126eb565b91905055508192505050949350505050565b80600073ffffffffffffffffffffffffffffffffffffffff166001600083815260200190815260200160002060010160009054906101000a900473ffffffffffffffffffffffffffffffffffffffff1673ffffffffffffffffffffffffffffffffffffffff1603610a2d576040517f08c379a0000000000000000000000000000000000000000000000000000000008152600401610a2490612151565b60405180910390fd5b6001600082815260200190815260200160002060010160009054906101000a900473ffffffffffffffffffffffffffffffffffffffff1673ffffffffffffffffffffffffffffffffffffffff163373ffffffffffffffffffffffffffffffffffffffff1614610ad1576040517f08c379a0000000000000000000000000000000000000000000000000000000008152600401610ac890612995565b60405180910390fd5b610ad9611972565b60006001600084815260200190815260200160002090508060040160009054906101000a900460ff16610b41576040517f08c379a0000000000000000000000000000000000000000000000000000000008152600401610b3890612a01565b60405180910390fd5b6000816002015411610b88576040517f08c379a0000000000000000000000000000000000000000000000000000000008152600401610b7f90612a6d565b60405180910390fd5b6000816002015490506000826002018190555060008260040160006101000a81548160ff02191690831515021790555060003373ffffffffffffffffffffffffffffffffffffffff1682604051610bde90612abe565b60006040518083038185875af1925050503d8060008114610c1b576040519150601f19603f3d011682016040523d82523d6000602084013e610c20565b606091505b5050905080610c64576040517f08c379a0000000000000000000000000000000000000000000000000000000008152600401610c5b90612b1f565b60405180910390fd5b847f8a7ac71879be9c7fd94920f794bc9cae6990556a59fd6cad0597e30388eb780c604051610c9290612b8b565b60405180910390a2505050610ca56119b8565b5050565b84600073ffffffffffffffffffffffffffffffffffffffff166001600083815260200190815260200160002060010160009054906101000a900473ffffffffffffffffffffffffffffffffffffffff1673ffffffffffffffffffffffffffffffffffffffff1603610d4f576040517f08c379a0000000000000000000000000000000000000000000000000000000008152600401610d4690612151565b60405180910390fd5b6001600082815260200190815260200160002060010160009054906101000a900473ffffffffffffffffffffffffffffffffffffffff1673ffffffffffffffffffffffffffffffffffffffff163373ffffffffffffffffffffffffffffffffffffffff1614610df3576040517f08c379a0000000000000000000000000000000000000000000000000000000008152600401610dea90612995565b60405180910390fd5b610dfb611972565b600060016000888152602001908152602001600020905060006002600089815260200190815260200160002090506000826002015411610e70576040517f08c379a0000000000000000000000000000000000000000000000000000000008152600401610e6790612bf7565b60405180910390fd5b8160040160009054906101000a900460ff16610ec1576040517f08c379a0000000000000000000000000000000000000000000000000000000008152600401610eb890612c63565b60405180910390fd5b6000805b82805490508110156113cb578873ffffffffffffffffffffffffffffffffffffffff16838281548110610efb57610efa612321565b5b906000526020600020906003020160000160009054906101000a900473ffffffffffffffffffffffffffffffffffffffff1673ffffffffffffffffffffffffffffffffffffffff16148015610f7f5750828181548110610f5e57610f5d612321565b5b906000526020600020906003020160020160009054906101000a900460ff16155b156113b857600191506000838281548110610f9d57610f9c612321565b5b9060005260206000209060030201905088156111ed576000856002015490506000866002018190555060018260020160006101000a81548160ff02191690831515021790555060008660040160006101000a81548160ff0219169083151502179055508a8660060160006101000a81548173ffffffffffffffffffffffffffffffffffffffff021916908373ffffffffffffffffffffffffffffffffffffffff16021790555060008b73ffffffffffffffffffffffffffffffffffffffff168260405161106990612abe565b60006040518083038185875af1925050503d80600081146110a6576040519150601f19603f3d011682016040523d82523d6000602084013e6110ab565b606091505b50509050806110ef576040517f08c379a00000000000000000000000000000000000000000000000000000000081526004016110e690612ccf565b60405180910390fd5b600460009054906101000a900473ffffffffffffffffffffffffffffffffffffffff1673ffffffffffffffffffffffffffffffffffffffff16636b2bafc88d896005016040518363ffffffff1660e01b815260040161114f929190612d73565b6020604051808303816000875af115801561116e573d6000803e3d6000fd5b505050506040513d601f19601f820116820180604052508101906111929190612db8565b508b73ffffffffffffffffffffffffffffffffffffffff168d7faf91c67c3c7198192458899dbf918f9ef08c4d0707e09cf2982d3eda3ec908ce848d8d6040516111de93929190612de5565b60405180910390a350506113b2565b83600185805490506111ff9190612e17565b815481106112105761120f612321565b5b906000526020600020906003020184838154811061123157611230612321565b5b90600052602060002090600302016000820160009054906101000a900473ffffffffffffffffffffffffffffffffffffffff168160000160006101000a81548173ffffffffffffffffffffffffffffffffffffffff021916908373ffffffffffffffffffffffffffffffffffffffff160217905550600182018160010190816112ba9190612e61565b506002820160009054906101000a900460ff168160020160006101000a81548160ff021916908315150217905550905050838054806112fc576112fb612f49565b5b6001900381819060005260206000209060030201600080820160006101000a81549073ffffffffffffffffffffffffffffffffffffffff021916905560018201600061134891906119c2565b6002820160006101000a81549060ff0219169055505090558973ffffffffffffffffffffffffffffffffffffffff168b7f22762643fffe90661d0d6514a760d6979e412dc91c8c19bbab5bea79b10559d08a8a6040516113a9929190612698565b60405180910390a35b506113cb565b80806113c3906126eb565b915050610ec5565b508061140c576040517f08c379a000000000000000000000000000000000000000000000000000000000815260040161140390612fc4565b60405180910390fd5b5050506114176119b8565b505050505050565b6000806000606060006060600060606000600160008b815260200190815260200160002090506000600260008c815260200190815260200160002090506000818054905067ffffffffffffffff81111561147c5761147b61235b565b5b6040519080825280602002602001820160405280156114b557816020015b6114a2611a02565b81526020019060019003908161149a5790505b50905060005b8280549050811015611627578281815481106114da576114d9612321565b5b90600052602060002090600302016040518060600160405290816000820160009054906101000a900473ffffffffffffffffffffffffffffffffffffffff1673ffffffffffffffffffffffffffffffffffffffff1673ffffffffffffffffffffffffffffffffffffffff168152602001600182018054611559906123b9565b80601f0160208091040260200160405190810160405280929190818152602001828054611585906123b9565b80156115d25780601f106115a7576101008083540402835291602001916115d2565b820191906000526020600020905b8154815290600101906020018083116115b557829003601f168201915b505050505081526020016002820160009054906101000a900460ff16151515158152505082828151811061160957611608612321565b5b6020026020010181905250808061161f906126eb565b9150506114bb565b5082600001548360010160009054906101000a900473ffffffffffffffffffffffffffffffffffffffff168460020154856003018660040160009054906101000a900460ff16876005018860060160009054906101000a900473ffffffffffffffffffffffffffffffffffffffff16878480546116a3906123b9565b80601f01602080910402602001604051908101604052809291908181526020018280546116cf906123b9565b801561171c5780601f106116f15761010080835404028352916020019161171c565b820191906000526020600020905b8154815290600101906020018083116116ff57829003601f168201915b5050505050945082805461172f906123b9565b80601f016020809104026020016040519081016040528092919081815260200182805461175b906123b9565b80156117a85780601f1061177d576101008083540402835291602001916117a8565b820191906000526020600020905b81548152906001019060200180831161178b57829003601f168201915b505050505092509a509a509a509a509a509a509a509a50505050919395975091939597565b60016020528060005260406000206000915090508060000154908060010160009054906101000a900473ffffffffffffffffffffffffffffffffffffffff1690806002015490806003018054611822906123b9565b80601f016020809104026020016040519081016040528092919081815260200182805461184e906123b9565b801561189b5780601f106118705761010080835404028352916020019161189b565b820191906000526020600020905b81548152906001019060200180831161187e57829003601f168201915b5050505050908060040160009054906101000a900460ff16908060050180546118c3906123b9565b80601f01602080910402602001604051908101604052809291908181526020018280546118ef906123b9565b801561193c5780601f106119115761010080835404028352916020019161193c565b820191906000526020600020905b81548152906001019060200180831161191f57829003601f168201915b5050505050908060060160009054906101000a900473ffffffffffffffffffffffffffffffffffffffff16905087565b60035481565b6002600054036119ae576040517f3ee5aeb500000000000000000000000000000000000000000000000000000000815260040160405180910390fd5b6002600081905550565b6001600081905550565b5080546119ce906123b9565b6000825580601f106119e057506119ff565b601f0160209004906000526020600020908101906119fe9190611a3b565b5b50565b6040518060600160405280600073ffffffffffffffffffffffffffffffffffffffff168152602001606081526020016000151581525090565b5b80821115611a54576000816000905550600101611a3c565b5090565b600080fd5b600080fd5b6000819050919050565b611a7581611a62565b8114611a8057600080fd5b50565b600081359050611a9281611a6c565b92915050565b600080fd5b600080fd5b600080fd5b60008083601f840112611abd57611abc611a98565b5b8235905067ffffffffffffffff811115611ada57611ad9611a9d565b5b602083019150836001820283011115611af657611af5611aa2565b5b9250929050565b600080600060408486031215611b1657611b15611a58565b5b6000611b2486828701611a83565b935050602084013567ffffffffffffffff811115611b4557611b44611a5d565b5b611b5186828701611aa7565b92509250509250925092565b600073ffffffffffffffffffffffffffffffffffffffff82169050919050565b6000819050919050565b6000611ba2611b9d611b9884611b5d565b611b7d565b611b5d565b9050919050565b6000611bb482611b87565b9050919050565b6000611bc682611ba9565b9050919050565b611bd681611bbb565b82525050565b6000602082019050611bf16000830184611bcd565b92915050565b60008060008060408587031215611c1157611c10611a58565b5b600085013567ffffffffffffffff811115611c2f57611c2e611a5d565b5b611c3b87828801611aa7565b9450945050602085013567ffffffffffffffff811115611c5e57611c5d611a5d565b5b611c6a87828801611aa7565b925092505092959194509250565b611c8181611a62565b82525050565b6000602082019050611c9c6000830184611c78565b92915050565b600060208284031215611cb857611cb7611a58565b5b6000611cc684828501611a83565b91505092915050565b6000611cda82611b5d565b9050919050565b611cea81611ccf565b8114611cf557600080fd5b50565b600081359050611d0781611ce1565b92915050565b60008115159050919050565b611d2281611d0d565b8114611d2d57600080fd5b50565b600081359050611d3f81611d19565b92915050565b600080600080600060808688031215611d6157611d60611a58565b5b6000611d6f88828901611a83565b9550506020611d8088828901611cf8565b9450506040611d9188828901611d30565b935050606086013567ffffffffffffffff811115611db257611db1611a5d565b5b611dbe88828901611aa7565b92509250509295509295909350565b611dd681611ccf565b82525050565b600081519050919050565b600082825260208201905092915050565b60005b83811015611e16578082015181840152602081019050611dfb565b60008484015250505050565b6000601f19601f8301169050919050565b6000611e3e82611ddc565b611e488185611de7565b9350611e58818560208601611df8565b611e6181611e22565b840191505092915050565b611e7581611d0d565b82525050565b600081519050919050565b600082825260208201905092915050565b6000819050602082019050919050565b611eb081611ccf565b82525050565b600082825260208201905092915050565b6000611ed282611ddc565b611edc8185611eb6565b9350611eec818560208601611df8565b611ef581611e22565b840191505092915050565b611f0981611d0d565b82525050565b6000606083016000830151611f276000860182611ea7565b5060208301518482036020860152611f3f8282611ec7565b9150506040830151611f546040860182611f00565b508091505092915050565b6000611f6b8383611f0f565b905092915050565b6000602082019050919050565b6000611f8b82611e7b565b611f958185611e86565b935083602082028501611fa785611e97565b8060005b85811015611fe35784840389528151611fc48582611f5f565b9450611fcf83611f73565b925060208a01995050600181019050611fab565b50829750879550505050505092915050565b60006101008201905061200b600083018b611c78565b612018602083018a611dcd565b6120256040830189611c78565b81810360608301526120378188611e33565b90506120466080830187611e6c565b81810360a08301526120588186611e33565b905061206760c0830185611dcd565b81810360e08301526120798184611f80565b90509998505050505050505050565b600060e08201905061209d600083018a611c78565b6120aa6020830189611dcd565b6120b76040830188611c78565b81810360608301526120c98187611e33565b90506120d86080830186611e6c565b81810360a08301526120ea8185611e33565b90506120f960c0830184611dcd565b98975050505050505050565b7f426f756e7479206e6f7420666f756e6400000000000000000000000000000000600082015250565b600061213b601083611de7565b915061214682612105565b602082019050919050565b6000602082019050818103600083015261216a8161212e565b9050919050565b7f426f756e747920636c6f73656400000000000000000000000000000000000000600082015250565b60006121a7600d83611de7565b91506121b282612171565b602082019050919050565b600060208201905081810360008301526121d68161219a565b9050919050565b7f43726561746f722063616e6e6f7420636c61696d206f776e20626f756e747900600082015250565b6000612213601f83611de7565b915061221e826121dd565b602082019050919050565b6000602082019050818103600083015261224281612206565b9050919050565b7f50726f6f66207265717569726564000000000000000000000000000000000000600082015250565b600061227f600e83611de7565b915061228a82612249565b602082019050919050565b600060208201905081810360008301526122ae81612272565b9050919050565b7f4e6f20726577617264206c6f636b656400000000000000000000000000000000600082015250565b60006122eb601083611de7565b91506122f6826122b5565b602082019050919050565b6000602082019050818103600083015261231a816122de565b9050919050565b7f4e487b7100000000000000000000000000000000000000000000000000000000600052603260045260246000fd5b600082905092915050565b7f4e487b7100000000000000000000000000000000000000000000000000000000600052604160045260246000fd5b7f4e487b7100000000000000000000000000000000000000000000000000000000600052602260045260246000fd5b600060028204905060018216806123d157607f821691505b6020821081036123e4576123e361238a565b5b50919050565b60008190508160005260206000209050919050565b60006020601f8301049050919050565b600082821b905092915050565b60006008830261244c7fffffffffffffffffffffffffffffffffffffffffffffffffffffffffffffffff8261240f565b612456868361240f565b95508019841693508086168417925050509392505050565b600061248961248461247f84611a62565b611b7d565b611a62565b9050919050565b6000819050919050565b6124a38361246e565b6124b76124af82612490565b84845461241c565b825550505050565b600090565b6124cc6124bf565b6124d781848461249a565b505050565b5b818110156124fb576124f06000826124c4565b6001810190506124dd565b5050565b601f82111561254057612511816123ea565b61251a846123ff565b81016020851015612529578190505b61253d612535856123ff565b8301826124dc565b50505b505050565b600082821c905092915050565b600061256360001984600802612545565b1980831691505092915050565b600061257c8383612552565b9150826002028217905092915050565b6125968383612350565b67ffffffffffffffff8111156125af576125ae61235b565b5b6125b982546123b9565b6125c48282856124ff565b6000601f8311600181146125f357600084156125e1578287013590505b6125eb8582612570565b865550612653565b601f198416612601866123ea565b60005b8281101561262957848901358255600182019150602085019450602081019050612604565b868310156126465784890135612642601f891682612552565b8355505b6001600288020188555050505b50505050505050565b82818337600083830152505050565b60006126778385611de7565b935061268483858461265c565b61268d83611e22565b840190509392505050565b600060208201905081810360008301526126b381848661266b565b90509392505050565b7f4e487b7100000000000000000000000000000000000000000000000000000000600052601160045260246000fd5b60006126f682611a62565b91507fffffffffffffffffffffffffffffffffffffffffffffffffffffffffffffffff8203612728576127276126bc565b5b600182019050919050565b61273c82611ddc565b67ffffffffffffffff8111156127555761275461235b565b5b61275f82546123b9565b61276a8282856124ff565b600060209050601f83116001811461279d576000841561278b578287015190505b6127958582612570565b8655506127fd565b601f1984166127ab866123ea565b60005b828110156127d3578489015182556001820191506020850194506020810190506127ae565b868310156127f057848901516127ec601f891682612552565b8355505b6001600288020188555050505b505050505050565b7f4465706f73697420455448207265776172640000000000000000000000000000600082015250565b600061283b601283611de7565b915061284682612805565b602082019050919050565b6000602082019050818103600083015261286a8161282e565b9050919050565b7f49737375652055524c2072657175697265640000000000000000000000000000600082015250565b60006128a7601283611de7565b91506128b282612871565b602082019050919050565b600060208201905081810360008301526128d68161289a565b9050919050565b7f4261646765205552492072657175697265640000000000000000000000000000600082015250565b6000612913601283611de7565b915061291e826128dd565b602082019050919050565b6000602082019050818103600083015261294281612906565b9050919050565b7f4f6e6c792063726561746f7220616c6c6f776564000000000000000000000000600082015250565b600061297f601483611de7565b915061298a82612949565b602082019050919050565b600060208201905081810360008301526129ae81612972565b9050919050565b7f416c726561647920636c6f736564000000000000000000000000000000000000600082015250565b60006129eb600e83611de7565b91506129f6826129b5565b602082019050919050565b60006020820190508181036000830152612a1a816129de565b9050919050565b7f4e6f2045544820746f20726566756e6400000000000000000000000000000000600082015250565b6000612a57601083611de7565b9150612a6282612a21565b602082019050919050565b60006020820190508181036000830152612a8681612a4a565b9050919050565b600081905092915050565b50565b6000612aa8600083612a8d565b9150612ab382612a98565b600082019050919050565b6000612ac982612a9b565b9150819050919050565b7f526566756e64206661696c656400000000000000000000000000000000000000600082015250565b6000612b09600d83611de7565b9150612b1482612ad3565b602082019050919050565b60006020820190508181036000830152612b3881612afc565b9050919050565b7f436c6f7365642062792063726561746f722c2045544820726566756e64656400600082015250565b6000612b75601f83611de7565b9150612b8082612b3f565b602082019050919050565b60006020820190508181036000830152612ba481612b68565b9050919050565b7f4e6f20455448206c6f636b656400000000000000000000000000000000000000600082015250565b6000612be1600d83611de7565b9150612bec82612bab565b602082019050919050565b60006020820190508181036000830152612c1081612bd4565b9050919050565b7f426f756e747920616c726561647920636c6f7365640000000000000000000000600082015250565b6000612c4d601583611de7565b9150612c5882612c17565b602082019050919050565b60006020820190508181036000830152612c7c81612c40565b9050919050565b7f455448207472616e73666572206661696c656400000000000000000000000000600082015250565b6000612cb9601383611de7565b9150612cc482612c83565b602082019050919050565b60006020820190508181036000830152612ce881612cac565b9050919050565b60008154612cfc816123b9565b612d068186611de7565b94506001821660008114612d215760018114612d3757612d6a565b60ff198316865281151560200286019350612d6a565b612d40856123ea565b60005b83811015612d6257815481890152600182019150602081019050612d43565b808801955050505b50505092915050565b6000604082019050612d886000830185611dcd565b8181036020830152612d9a8184612cef565b90509392505050565b600081519050612db281611a6c565b92915050565b600060208284031215612dce57612dcd611a58565b5b6000612ddc84828501612da3565b91505092915050565b6000604082019050612dfa6000830186611c78565b8181036020830152612e0d81848661266b565b9050949350505050565b6000612e2282611a62565b9150612e2d83611a62565b9250828203905081811115612e4557612e446126bc565b5b92915050565b600081549050612e5a816123b9565b9050919050565b818103612e6f575050612f47565b612e7882612e4b565b67ffffffffffffffff811115612e9157612e9061235b565b5b612e9b82546123b9565b612ea68282856124ff565b6000601f831160018114612ed55760008415612ec3578287015490505b612ecd8582612570565b865550612f40565b601f198416612ee3876123ea565b9650612eee866123ea565b60005b82811015612f1657848901548255600182019150600185019450602081019050612ef1565b86831015612f335784890154612f2f601f891682612552565b8355505b6001600288020188555050505b5050505050505b565b7f4e487b7100000000000000000000000000000000000000000000000000000000600052603160045260246000fd5b7f50656e64696e6720636c61696d206e6f7420666f756e64000000000000000000600082015250565b6000612fae601783611de7565b9150612fb982612f78565b602082019050919050565b60006020820190508181036000830152612fdd81612fa1565b905091905056fea2646970667358221220f6a13a24da51c63485f034afd8d1719bf95cc0d383474c2d4d9828989463c56664736f6c63430008140033",
  "linkReferences": {},
  "deployedLinkReferences": {}
}