{
  "_format": "hh-sol-artifact-1",
  "contractName": "BountyDispenserGasless",
  "sourceName": "contracts/BountyDispenserGasless.sol",
  "abi": [
    {
      "inputs": [
        {
          "internalType": "address",
          "name": "badgeAddress",
          "type": "address"
        }
      ],
      "stateMutability": "nonpayable",
      "type": "constructor"
    },
    {
      "inputs": [],
      "name": "ReentrancyGuardReentrantCall",
      "type": "error"
    },
    {
      "anonymous": false,
      "inputs": [
        {
          "indexed": true,
          "internalType": "uint256",
          "name": "id",
          "type": "uint256"
        },
        {
          "indexed": true,
          "internalType": "address",
          "name": "developer",
          "type": "address"
        },
        {
          "indexed": false,
          "internalType": "uint256",
          "name": "reward",
          "type": "uint256"
        },
        {
          "indexed": false,
          "internalType": "string",
          "name": "message",
          "type": "string"
        }
      ],
      "name": "BountyApproved",
      "type": "event"
    },
    {
      "anonymous": false,
      "inputs": [
        {
          "indexed": true,
          "internalType": "uint256",
          "name": "id",
          "type": "uint256"
        },
        {
          "indexed": false,
          "internalType": "string",
          "name": "message",
          "type": "string"
        }
      ],
      "name": "BountyClosed",
      "type": "event"
    },
    {
      "anonymous": false,
      "inputs": [
        {
          "indexed": true,
          "internalType": "uint256",
          "name": "id",
          "type": "uint256"
        },
        {
          "indexed": true,
          "internalType": "address",
          "name": "creator",
          "type": "address"
        },
        {
          "indexed": false,
          "internalType": "uint256",
          "name": "reward",
          "type": "uint256"
        }
      ],
      "name": "BountyCreated",
      "type": "event"
    },
    {
      "anonymous": false,
      "inputs": [
        {
          "indexed": true,
          "internalType": "uint256",
          "name": "id",
          "type": "uint256"
        },
        {
          "indexed": true,
          "internalType": "address",
          "name": "developer",
          "type": "address"
        },
        {
          "indexed": false,
          "internalType": "string",
          "name": "message",
          "type": "string"
        }
      ],
      "name": "BountyRejected",
      "type": "event"
    },
    {
      "anonymous": false,
      "inputs": [
        {
          "indexed": true,
          "internalType": "uint256",
          "name": "id",
          "type": "uint256"
        },
        {
          "indexed": true,
          "internalType": "address",
          "name": "developer",
          "type": "address"
        },
        {
          "indexed": false,
          "internalType": "string",
          "name": "proof",
          "type": "string"
        }
      ],
      "name": "ProofSubmitted",
      "type": "event"
    },
    {
      "inputs": [],
      "name": "badgeNFT",
      "outputs": [
        {
          "internalType": "contract GitBountyBadge",
          "name": "",
          "type": "address"
        }
      ],
      "stateMutability": "view",
      "type": "function"
    },
    {
      "inputs": [
        {
          "internalType": "uint256",
          "name": "",
          "type": "uint256"
        }
      ],
      "name": "bounties",
      "outputs": [
        {
          "internalType": "uint256",
          "name": "id",
          "type": "uint256"
        },
        {
          "internalType": "address",
          "name": "creator",
          "type": "address"
        },
        {
          "internalType": "uint256",
          "name": "rewardAmount",
          "type": "uint256"
        },
        {
          "internalType": "string",
          "name": "githubIssueUrl",
          "type": "string"
        },
        {
          "internalType": "bool",
          "name": "isOpen",
          "type": "bool"
        },
        {
          "internalType": "string",
          "name": "badgeURI",
          "type": "string"
        },
        {
          "internalType": "address",
          "name": "winner",
          "type": "address"
        }
      ],
      "stateMutability": "view",
      "type": "function"
    },
    {
      "inputs": [
        {
          "internalType": "uint256",
          "name": "_id",
          "type": "uint256"
        },
        {
          "internalType": "string",
          "name": "_proof",
          "type": "string"
        }
      ],
      "name": "claimBounty",
      "outputs": [],
      "stateMutability": "nonpayable",
      "type": "function"
    },
    {
      "inputs": [
        {
          "internalType": "uint256",
          "name": "_id",
          "type": "uint256"
        }
      ],
      "name": "closeBounty",
      "outputs": [],
      "stateMutability": "nonpayable",
      "type": "function"
    },
    {
      "inputs": [
        {
          "internalType": "string",
          "name": "issueUrl",
          "type": "string"
        },
        {
          "internalType": "string",
          "name": "_badgeURI",
          "type": "string"
        }
      ],
      "name": "createBounty",
      "outputs": [
        {
          "internalType": "uint256",
          "name": "",
          "type": "uint256"
        }
      ],
      "stateMutability": "payable",
      "type": "function"
    },
    {
      "inputs": [
        {
          "internalType": "uint256",
          "name": "_id",
          "type": "uint256"
        }
      ],
      "name": "getBountyWithClaims",
      "outputs": [
        {
          "internalType": "uint256",
          "name": "id",
          "type": "uint256"
        },
        {
          "internalType": "address",
          "name": "creator",
          "type": "address"
        },
        {
          "internalType": "uint256",
          "name": "reward",
          "type": "uint256"
        },
        {
          "internalType": "string",
          "name": "issueUrl",
          "type": "string"
        },
        {
          "internalType": "bool",
          "name": "open",
          "type": "bool"
        },
        {
          "internalType": "string",
          "name": "badgeURI",
          "type": "string"
        },
        {
          "internalType": "address",
          "name": "winner",
          "type": "address"
        },
        {
          "components": [
            {
              "internalType": "address",
              "name": "claimant",
              "type": "address"
            },
            {
              "internalType": "string",
              "name": "proofLink",
              "type": "string"
            },
            {
              "internalType": "bool",
              "name": "approved",
              "type": "bool"
            }
          ],
          "internalType": "struct BountyDispenserGasless.Claim[]",
          "name": "allClaims",
          "type": "tuple[]"
        }
      ],
      "stateMutability": "view",
      "type": "function"
    },
    {
      "inputs": [
        {
          "internalType": "uint256",
          "name": "id",
          "type": "uint256"
        }
      ],
      "name": "getClaims",
      "outputs": [
        {
          "components": [
            {
              "internalType": "address",
              "name": "claimant",
              "type": "address"
            },
            {
              "internalType": "string",
              "name": "proofLink",
              "type": "string"
            },
            {
              "internalType": "bool",
              "name": "approved",
              "type": "bool"
            }
          ],
          "internalType": "struct BountyDispenserGasless.Claim[]",
          "name": "",
          "type": "tuple[]"
        }
      ],
      "stateMutability": "view",
      "type": "function"
    },
    {
      "inputs": [
        {
          "internalType": "uint256",
          "name": "_id",
          "type": "uint256"
        },
        {
          "internalType": "address",
          "name": "claimant",
          "type": "address"
        },
        {
          "internalType": "bool",
          "name": "approve",
          "type": "bool"
        },
        {
          "internalType": "string",
          "name": "msgForDev",
          "type": "string"
        }
      ],
      "name": "handleClaim",
      "outputs": [],
      "stateMutability": "nonpayable",
      "type": "function"
    },
    {
      "inputs": [],
      "name": "nextBountyId",
      "outputs": [
        {
          "internalType": "uint256",
          "name": "",
          "type": "uint256"
        }
      ],
      "stateMutability": "view",
      "type": "function"
    },
    {
      "stateMutability": "payable",
      "type": "receive"
    }
  ],
  "bytecode": "0x608060405260016003553480156200001657600080fd5b50604051620034263803806200342683398181016040528101906200003c919062000168565b6001600081905550600073ffffffffffffffffffffffffffffffffffffffff168173ffffffffffffffffffffffffffffffffffffffff1603620000b6576040517f08c379a0000000000000000000000000000000000000000000000000000000008152600401620000ad90620001fb565b60405180910390fd5b80600460006101000a81548173ffffffffffffffffffffffffffffffffffffffff021916908373ffffffffffffffffffffffffffffffffffffffff160217905550506200021d565b600080fd5b600073ffffffffffffffffffffffffffffffffffffffff82169050919050565b6000620001308262000103565b9050919050565b620001428162000123565b81146200014e57600080fd5b50565b600081519050620001628162000137565b92915050565b600060208284031215620001815762000180620000fe565b5b6000620001918482850162000151565b91505092915050565b600082825260208201905092915050565b7f426164676520636f6e7472616374207265717569726564000000000000000000600082015250565b6000620001e36017836200019a565b9150620001f082620001ab565b602082019050919050565b600060208201905081810360008301526200021681620001d4565b9050919050565b6131f9806200022d6000396000f3fe60806040526004361061008a5760003560e01c8063b988997f11610059578063b988997f14610157578063c8fe588714610180578063d22c4afc146101a9578063dc2f8744146101ed578063fd14fad41461023057610091565b80631a426550146100965780634348e0e9146100bf5780636d2008a5146100ea578063888af91d1461011a57610091565b3661009157005b600080fd5b3480156100a257600080fd5b506100bd60048036038101906100b89190611cba565b61025b565b005b3480156100cb57600080fd5b506100d4610769565b6040516100e19190611d99565b60405180910390f35b61010460048036038101906100ff9190611db4565b61078f565b6040516101119190611e44565b60405180910390f35b34801561012657600080fd5b50610141600480360381019061013c9190611e5f565b6109cf565b60405161014e919061206a565b60405180910390f35b34801561016357600080fd5b5061017e60048036038101906101799190611e5f565b610b44565b005b34801561018c57600080fd5b506101a760048036038101906101a291906120e4565b610e66565b005b3480156101b557600080fd5b506101d060048036038101906101cb9190611e5f565b6115dc565b6040516101e49897969594939291906121d4565b60405180910390f35b3480156101f957600080fd5b50610214600480360381019061020f9190611e5f565b61198a565b6040516102279796959493929190612267565b60405180910390f35b34801561023c57600080fd5b50610245611b29565b6040516102529190611e44565b60405180910390f35b6000600160008581526020019081526020016000209050600073ffffffffffffffffffffffffffffffffffffffff168160010160009054906101000a900473ffffffffffffffffffffffffffffffffffffffff1673ffffffffffffffffffffffffffffffffffffffff1603610305576040517f08c379a00000000000000000000000000000000000000000000000000000000081526004016102fc90612330565b60405180910390fd5b8060040160009054906101000a900460ff16610356576040517f08c379a000000000000000000000000000000000000000000000000000000000815260040161034d9061239c565b60405180910390fd5b8060010160009054906101000a900473ffffffffffffffffffffffffffffffffffffffff1673ffffffffffffffffffffffffffffffffffffffff163373ffffffffffffffffffffffffffffffffffffffff16036103e8576040517f08c379a00000000000000000000000000000000000000000000000000000000081526004016103df90612408565b60405180910390fd5b6000838390501161042e576040517f08c379a000000000000000000000000000000000000000000000000000000000815260040161042590612474565b60405180910390fd5b6000816002015411610475576040517f08c379a000000000000000000000000000000000000000000000000000000000815260040161046c906124e0565b60405180910390fd5b600060026000868152602001908152602001600020905060005b81805490508110156105ee573373ffffffffffffffffffffffffffffffffffffffff168282815481106104c5576104c4612500565b5b906000526020600020906003020160000160009054906101000a900473ffffffffffffffffffffffffffffffffffffffff1673ffffffffffffffffffffffffffffffffffffffff16148015610549575081818154811061052857610527612500565b5b906000526020600020906003020160020160009054906101000a900460ff16155b156105db57848483838154811061056357610562612500565b5b9060005260206000209060030201600101918261058192919061276b565b503373ffffffffffffffffffffffffffffffffffffffff16867fb2217a1ebc8d6435d328a4607aa9709269fe4cb393535a1675721d8431a5401887876040516105cb929190612877565b60405180910390a3505050610764565b80806105e6906128ca565b91505061048f565b508060405180606001604052803373ffffffffffffffffffffffffffffffffffffffff16815260200186868080601f016020809104026020016040519081016040528093929190818152602001838380828437600081840152601f19601f82011690508083019250505050505050815260200160001515815250908060018154018082558091505060019003906000526020600020906003020160009091909190915060008201518160000160006101000a81548173ffffffffffffffffffffffffffffffffffffffff021916908373ffffffffffffffffffffffffffffffffffffffff16021790555060208201518160010190816106ed9190612912565b5060408201518160020160006101000a81548160ff02191690831515021790555050503373ffffffffffffffffffffffffffffffffffffffff16857fb2217a1ebc8d6435d328a4607aa9709269fe4cb393535a1675721d8431a540188686604051610759929190612877565b60405180910390a350505b505050565b600460009054906101000a900473ffffffffffffffffffffffffffffffffffffffff1681565b60008034116107d3576040517f08c379a00000000000000000000000000000000000000000000000000000000081526004016107ca90612a30565b60405180910390fd5b60008585905011610819576040517f08c379a000000000000000000000000000000000000000000000000000000000815260040161081090612a9c565b60405180910390fd5b6000838390501161085f576040517f08c379a000000000000000000000000000000000000000000000000000000000815260040161085690612b08565b60405180910390fd5b600060035490506000600160008381526020019081526020016000209050818160000181905550338160010160006101000a81548173ffffffffffffffffffffffffffffffffffffffff021916908373ffffffffffffffffffffffffffffffffffffffff16021790555034816002018190555086868260030191826108e592919061276b565b5060018160040160006101000a81548160ff021916908315150217905550848482600501918261091692919061276b565b5060008160060160006101000a81548173ffffffffffffffffffffffffffffffffffffffff021916908373ffffffffffffffffffffffffffffffffffffffff1602179055503373ffffffffffffffffffffffffffffffffffffffff16827f1b5e39b039983ddb5862b33842ac157179867c6df1a61f69c50465fd14017f6e346040516109a29190611e44565b60405180910390a3600360008154809291906109bd906128ca565b91905055508192505050949350505050565b606060026000838152602001908152602001600020805480602002602001604051908101604052809291908181526020016000905b82821015610b3957838290600052602060002090600302016040518060600160405290816000820160009054906101000a900473ffffffffffffffffffffffffffffffffffffffff1673ffffffffffffffffffffffffffffffffffffffff1673ffffffffffffffffffffffffffffffffffffffff168152602001600182018054610a8d90612598565b80601f0160208091040260200160405190810160405280929190818152602001828054610ab990612598565b8015610b065780601f10610adb57610100808354040283529160200191610b06565b820191906000526020600020905b815481529060010190602001808311610ae957829003601f168201915b505050505081526020016002820160009054906101000a900460ff16151515158152505081526020019060010190610a04565b505050509050919050565b80600073ffffffffffffffffffffffffffffffffffffffff166001600083815260200190815260200160002060010160009054906101000a900473ffffffffffffffffffffffffffffffffffffffff1673ffffffffffffffffffffffffffffffffffffffff1603610bea576040517f08c379a0000000000000000000000000000000000000000000000000000000008152600401610be190612330565b60405180910390fd5b6001600082815260200190815260200160002060010160009054906101000a900473ffffffffffffffffffffffffffffffffffffffff1673ffffffffffffffffffffffffffffffffffffffff163373ffffffffffffffffffffffffffffffffffffffff1614610c8e576040517f08c379a0000000000000000000000000000000000000000000000000000000008152600401610c8590612b74565b60405180910390fd5b610c96611b2f565b60006001600084815260200190815260200160002090508060040160009054906101000a900460ff16610cfe576040517f08c379a0000000000000000000000000000000000000000000000000000000008152600401610cf590612be0565b60405180910390fd5b6000816002015411610d45576040517f08c379a0000000000000000000000000000000000000000000000000000000008152600401610d3c90612c4c565b60405180910390fd5b6000816002015490506000826002018190555060008260040160006101000a81548160ff02191690831515021790555060003373ffffffffffffffffffffffffffffffffffffffff1682604051610d9b90612c9d565b60006040518083038185875af1925050503d8060008114610dd8576040519150601f19603f3d011682016040523d82523d6000602084013e610ddd565b606091505b5050905080610e21576040517f08c379a0000000000000000000000000000000000000000000000000000000008152600401610e1890612cfe565b60405180910390fd5b847f8a7ac71879be9c7fd94920f794bc9cae6990556a59fd6cad0597e30388eb780c604051610e4f90612d6a565b60405180910390a2505050610e62611b75565b5050565b84600073ffffffffffffffffffffffffffffffffffffffff166001600083815260200190815260200160002060010160009054906101000a900473ffffffffffffffffffffffffffffffffffffffff1673ffffffffffffffffffffffffffffffffffffffff1603610f0c576040517f08c379a0000000000000000000000000000000000000000000000000000000008152600401610f0390612330565b60405180910390fd5b6001600082815260200190815260200160002060010160009054906101000a900473ffffffffffffffffffffffffffffffffffffffff1673ffffffffffffffffffffffffffffffffffffffff163373ffffffffffffffffffffffffffffffffffffffff1614610fb0576040517f08c379a0000000000000000000000000000000000000000000000000000000008152600401610fa790612b74565b60405180910390fd5b610fb8611b2f565b60006001600088815260200190815260200160002090506000600260008981526020019081526020016000209050600082600201541161102d576040517f08c379a000000000000000000000000000000000000000000000000000000000815260040161102490612dd6565b60405180910390fd5b8160040160009054906101000a900460ff1661107e576040517f08c379a000000000000000000000000000000000000000000000000000000000815260040161107590612e42565b60405180910390fd5b6000805b8280549050811015611588578873ffffffffffffffffffffffffffffffffffffffff168382815481106110b8576110b7612500565b5b906000526020600020906003020160000160009054906101000a900473ffffffffffffffffffffffffffffffffffffffff1673ffffffffffffffffffffffffffffffffffffffff1614801561113c575082818154811061111b5761111a612500565b5b906000526020600020906003020160020160009054906101000a900460ff16155b156115755760019150600083828154811061115a57611159612500565b5b9060005260206000209060030201905088156113aa576000856002015490506000866002018190555060018260020160006101000a81548160ff02191690831515021790555060008660040160006101000a81548160ff0219169083151502179055508a8660060160006101000a81548173ffffffffffffffffffffffffffffffffffffffff021916908373ffffffffffffffffffffffffffffffffffffffff16021790555060008b73ffffffffffffffffffffffffffffffffffffffff168260405161122690612c9d565b60006040518083038185875af1925050503d8060008114611263576040519150601f19603f3d011682016040523d82523d6000602084013e611268565b606091505b50509050806112ac576040517f08c379a00000000000000000000000000000000000000000000000000000000081526004016112a390612eae565b60405180910390fd5b600460009054906101000a900473ffffffffffffffffffffffffffffffffffffffff1673ffffffffffffffffffffffffffffffffffffffff16636b2bafc88d896005016040518363ffffffff1660e01b815260040161130c929190612f52565b6020604051808303816000875af115801561132b573d6000803e3d6000fd5b505050506040513d601f19601f8201168201806040525081019061134f9190612f97565b508b73ffffffffffffffffffffffffffffffffffffffff168d7faf91c67c3c7198192458899dbf918f9ef08c4d0707e09cf2982d3eda3ec908ce848d8d60405161139b93929190612fc4565b60405180910390a3505061156f565b83600185805490506113bc9190612ff6565b815481106113cd576113cc612500565b5b90600052602060002090600302018483815481106113ee576113ed612500565b5b90600052602060002090600302016000820160009054906101000a900473ffffffffffffffffffffffffffffffffffffffff168160000160006101000a81548173ffffffffffffffffffffffffffffffffffffffff021916908373ffffffffffffffffffffffffffffffffffffffff160217905550600182018160010190816114779190613040565b506002820160009054906101000a900460ff168160020160006101000a81548160ff021916908315150217905550905050838054806114b9576114b8613128565b5b6001900381819060005260206000209060030201600080820160006101000a81549073ffffffffffffffffffffffffffffffffffffffff02191690556001820160006115059190611b7f565b6002820160006101000a81549060ff0219169055505090558973ffffffffffffffffffffffffffffffffffffffff168b7f22762643fffe90661d0d6514a760d6979e412dc91c8c19bbab5bea79b10559d08a8a604051611566929190612877565b60405180910390a35b50611588565b8080611580906128ca565b915050611082565b50806115c9576040517f08c379a00000000000000000000000000000000000000000000000000000000081526004016115c0906131a3565b60405180910390fd5b5050506115d4611b75565b505050505050565b6000806000606060006060600060606000600160008b815260200190815260200160002090506000600260008c815260200190815260200160002090506000818054905067ffffffffffffffff8111156116395761163861253a565b5b60405190808252806020026020018201604052801561167257816020015b61165f611bbf565b8152602001906001900390816116575790505b50905060005b82805490508110156117e45782818154811061169757611696612500565b5b90600052602060002090600302016040518060600160405290816000820160009054906101000a900473ffffffffffffffffffffffffffffffffffffffff1673ffffffffffffffffffffffffffffffffffffffff1673ffffffffffffffffffffffffffffffffffffffff16815260200160018201805461171690612598565b80601f016020809104026020016040519081016040528092919081815260200182805461174290612598565b801561178f5780601f106117645761010080835404028352916020019161178f565b820191906000526020600020905b81548152906001019060200180831161177257829003601f168201915b505050505081526020016002820160009054906101000a900460ff1615151515815250508282815181106117c6576117c5612500565b5b602002602001018190525080806117dc906128ca565b915050611678565b5082600001548360010160009054906101000a900473ffffffffffffffffffffffffffffffffffffffff168460020154856003018660040160009054906101000a900460ff16876005018860060160009054906101000a900473ffffffffffffffffffffffffffffffffffffffff168784805461186090612598565b80601f016020809104026020016040519081016040528092919081815260200182805461188c90612598565b80156118d95780601f106118ae576101008083540402835291602001916118d9565b820191906000526020600020905b8154815290600101906020018083116118bc57829003601f168201915b505050505094508280546118ec90612598565b80601f016020809104026020016040519081016040528092919081815260200182805461191890612598565b80156119655780601f1061193a57610100808354040283529160200191611965565b820191906000526020600020905b81548152906001019060200180831161194857829003601f168201915b505050505092509a509a509a509a509a509a509a509a50505050919395975091939597565b60016020528060005260406000206000915090508060000154908060010160009054906101000a900473ffffffffffffffffffffffffffffffffffffffff16908060020154908060030180546119df90612598565b80601f0160208091040260200160405190810160405280929190818152602001828054611a0b90612598565b8015611a585780601f10611a2d57610100808354040283529160200191611a58565b820191906000526020600020905b815481529060010190602001808311611a3b57829003601f168201915b5050505050908060040160009054906101000a900460ff1690806005018054611a8090612598565b80601f0160208091040260200160405190810160405280929190818152602001828054611aac90612598565b8015611af95780601f10611ace57610100808354040283529160200191611af9565b820191906000526020600020905b815481529060010190602001808311611adc57829003601f168201915b5050505050908060060160009054906101000a900473ffffffffffffffffffffffffffffffffffffffff16905087565b60035481565b600260005403611b6b576040517f3ee5aeb500000000000000000000000000000000000000000000000000000000815260040160405180910390fd5b6002600081905550565b6001600081905550565b508054611b8b90612598565b6000825580601f10611b9d5750611bbc565b601f016020900490600052602060002090810190611bbb9190611bf8565b5b50565b6040518060600160405280600073ffffffffffffffffffffffffffffffffffffffff168152602001606081526020016000151581525090565b5b80821115611c11576000816000905550600101611bf9565b5090565b600080fd5b600080fd5b6000819050919050565b611c3281611c1f565b8114611c3d57600080fd5b50565b600081359050611c4f81611c29565b92915050565b600080fd5b600080fd5b600080fd5b60008083601f840112611c7a57611c79611c55565b5b8235905067ffffffffffffffff811115611c9757611c96611c5a565b5b602083019150836001820283011115611cb357611cb2611c5f565b5b9250929050565b600080600060408486031215611cd357611cd2611c15565b5b6000611ce186828701611c40565b935050602084013567ffffffffffffffff811115611d0257611d01611c1a565b5b611d0e86828701611c64565b92509250509250925092565b600073ffffffffffffffffffffffffffffffffffffffff82169050919050565b6000819050919050565b6000611d5f611d5a611d5584611d1a565b611d3a565b611d1a565b9050919050565b6000611d7182611d44565b9050919050565b6000611d8382611d66565b9050919050565b611d9381611d78565b82525050565b6000602082019050611dae6000830184611d8a565b92915050565b60008060008060408587031215611dce57611dcd611c15565b5b600085013567ffffffffffffffff811115611dec57611deb611c1a565b5b611df887828801611c64565b9450945050602085013567ffffffffffffffff811115611e1b57611e1a611c1a565b5b611e2787828801611c64565b925092505092959194509250565b611e3e81611c1f565b82525050565b6000602082019050611e596000830184611e35565b92915050565b600060208284031215611e7557611e74611c15565b5b6000611e8384828501611c40565b91505092915050565b600081519050919050565b600082825260208201905092915050565b6000819050602082019050919050565b6000611ec382611d1a565b9050919050565b611ed381611eb8565b82525050565b600081519050919050565b600082825260208201905092915050565b60005b83811015611f13578082015181840152602081019050611ef8565b60008484015250505050565b6000601f19601f8301169050919050565b6000611f3b82611ed9565b611f458185611ee4565b9350611f55818560208601611ef5565b611f5e81611f1f565b840191505092915050565b60008115159050919050565b611f7e81611f69565b82525050565b6000606083016000830151611f9c6000860182611eca565b5060208301518482036020860152611fb48282611f30565b9150506040830151611fc96040860182611f75565b508091505092915050565b6000611fe08383611f84565b905092915050565b6000602082019050919050565b600061200082611e8c565b61200a8185611e97565b93508360208202850161201c85611ea8565b8060005b8581101561205857848403895281516120398582611fd4565b945061204483611fe8565b925060208a01995050600181019050612020565b50829750879550505050505092915050565b600060208201905081810360008301526120848184611ff5565b905092915050565b61209581611eb8565b81146120a057600080fd5b50565b6000813590506120b28161208c565b92915050565b6120c181611f69565b81146120cc57600080fd5b50565b6000813590506120de816120b8565b92915050565b600080600080600060808688031215612100576120ff611c15565b5b600061210e88828901611c40565b955050602061211f888289016120a3565b9450506040612130888289016120cf565b935050606086013567ffffffffffffffff81111561215157612150611c1a565b5b61215d88828901611c64565b92509250509295509295909350565b61217581611eb8565b82525050565b600082825260208201905092915050565b600061219782611ed9565b6121a1818561217b565b93506121b1818560208601611ef5565b6121ba81611f1f565b840191505092915050565b6121ce81611f69565b82525050565b6000610100820190506121ea600083018b611e35565b6121f7602083018a61216c565b6122046040830189611e35565b8181036060830152612216818861218c565b905061222560808301876121c5565b81810360a0830152612237818661218c565b905061224660c083018561216c565b81810360e08301526122588184611ff5565b90509998505050505050505050565b600060e08201905061227c600083018a611e35565b612289602083018961216c565b6122966040830188611e35565b81810360608301526122a8818761218c565b90506122b760808301866121c5565b81810360a08301526122c9818561218c565b90506122d860c083018461216c565b98975050505050505050565b7f426f756e7479206e6f7420666f756e6400000000000000000000000000000000600082015250565b600061231a60108361217b565b9150612325826122e4565b602082019050919050565b600060208201905081810360008301526123498161230d565b9050919050565b7f426f756e747920636c6f73656400000000000000000000000000000000000000600082015250565b6000612386600d8361217b565b915061239182612350565b602082019050919050565b600060208201905081810360008301526123b581612379565b9050919050565b7f43726561746f722063616e6e6f7420636c61696d206f776e20626f756e747900600082015250565b60006123f2601f8361217b565b91506123fd826123bc565b602082019050919050565b60006020820190508181036000830152612421816123e5565b9050919050565b7f50726f6f66207265717569726564000000000000000000000000000000000000600082015250565b600061245e600e8361217b565b915061246982612428565b602082019050919050565b6000602082019050818103600083015261248d81612451565b9050919050565b7f4e6f20726577617264206c6f636b656400000000000000000000000000000000600082015250565b60006124ca60108361217b565b91506124d582612494565b602082019050919050565b600060208201905081810360008301526124f9816124bd565b9050919050565b7f4e487b7100000000000000000000000000000000000000000000000000000000600052603260045260246000fd5b600082905092915050565b7f4e487b7100000000000000000000000000000000000000000000000000000000600052604160045260246000fd5b7f4e487b7100000000000000000000000000000000000000000000000000000000600052602260045260246000fd5b600060028204905060018216806125b057607f821691505b6020821081036125c3576125c2612569565b5b50919050565b60008190508160005260206000209050919050565b60006020601f8301049050919050565b600082821b905092915050565b60006008830261262b7fffffffffffffffffffffffffffffffffffffffffffffffffffffffffffffffff826125ee565b61263586836125ee565b95508019841693508086168417925050509392505050565b600061266861266361265e84611c1f565b611d3a565b611c1f565b9050919050565b6000819050919050565b6126828361264d565b61269661268e8261266f565b8484546125fb565b825550505050565b600090565b6126ab61269e565b6126b6818484612679565b505050565b5b818110156126da576126cf6000826126a3565b6001810190506126bc565b5050565b601f82111561271f576126f0816125c9565b6126f9846125de565b81016020851015612708578190505b61271c612714856125de565b8301826126bb565b50505b505050565b600082821c905092915050565b600061274260001984600802612724565b1980831691505092915050565b600061275b8383612731565b9150826002028217905092915050565b612775838361252f565b67ffffffffffffffff81111561278e5761278d61253a565b5b6127988254612598565b6127a38282856126de565b6000601f8311600181146127d257600084156127c0578287013590505b6127ca858261274f565b865550612832565b601f1984166127e0866125c9565b60005b82811015612808578489013582556001820191506020850194506020810190506127e3565b868310156128255784890135612821601f891682612731565b8355505b6001600288020188555050505b50505050505050565b82818337600083830152505050565b6000612856838561217b565b935061286383858461283b565b61286c83611f1f565b840190509392505050565b6000602082019050818103600083015261289281848661284a565b90509392505050565b7f4e487b7100000000000000000000000000000000000000000000000000000000600052601160045260246000fd5b60006128d582611c1f565b91507fffffffffffffffffffffffffffffffffffffffffffffffffffffffffffffffff82036129075761290661289b565b5b600182019050919050565b61291b82611ed9565b67ffffffffffffffff8111156129345761293361253a565b5b61293e8254612598565b6129498282856126de565b600060209050601f83116001811461297c576000841561296a578287015190505b612974858261274f565b8655506129dc565b601f19841661298a866125c9565b60005b828110156129b25784890151825560018201915060208501945060208101905061298d565b868310156129cf57848901516129cb601f891682612731565b8355505b6001600288020188555050505b505050505050565b7f4465706f73697420455448207265776172640000000000000000000000000000600082015250565b6000612a1a60128361217b565b9150612a25826129e4565b602082019050919050565b60006020820190508181036000830152612a4981612a0d565b9050919050565b7f49737375652055524c2072657175697265640000000000000000000000000000600082015250565b6000612a8660128361217b565b9150612a9182612a50565b602082019050919050565b60006020820190508181036000830152612ab581612a79565b9050919050565b7f4261646765205552492072657175697265640000000000000000000000000000600082015250565b6000612af260128361217b565b9150612afd82612abc565b602082019050919050565b60006020820190508181036000830152612b2181612ae5565b9050919050565b7f4f6e6c792063726561746f7220616c6c6f776564000000000000000000000000600082015250565b6000612b5e60148361217b565b9150612b6982612b28565b602082019050919050565b60006020820190508181036000830152612b8d81612b51565b9050919050565b7f416c726561647920636c6f736564000000000000000000000000000000000000600082015250565b6000612bca600e8361217b565b9150612bd582612b94565b602082019050919050565b60006020820190508181036000830152612bf981612bbd565b9050919050565b7f4e6f2045544820746f20726566756e6400000000000000000000000000000000600082015250565b6000612c3660108361217b565b9150612c4182612c00565b602082019050919050565b60006020820190508181036000830152612c6581612c29565b9050919050565b600081905092915050565b50565b6000612c87600083612c6c565b9150612c9282612c77565b600082019050919050565b6000612ca882612c7a565b9150819050919050565b7f526566756e64206661696c656400000000000000000000000000000000000000600082015250565b6000612ce8600d8361217b565b9150612cf382612cb2565b602082019050919050565b60006020820190508181036000830152612d1781612cdb565b9050919050565b7f436c6f7365642062792063726561746f722c2045544820726566756e64656400600082015250565b6000612d54601f8361217b565b9150612d5f82612d1e565b602082019050919050565b60006020820190508181036000830152612d8381612d47565b9050919050565b7f4e6f20455448206c6f636b656400000000000000000000000000000000000000600082015250565b6000612dc0600d8361217b565b9150612dcb82612d8a565b602082019050919050565b60006020820190508181036000830152612def81612db3565b9050919050565b7f426f756e747920616c726561647920636c6f7365640000000000000000000000600082015250565b6000612e2c60158361217b565b9150612e3782612df6565b602082019050919050565b60006020820190508181036000830152612e5b81612e1f565b9050919050565b7f455448207472616e73666572206661696c656400000000000000000000000000600082015250565b6000612e9860138361217b565b9150612ea382612e62565b602082019050919050565b60006020820190508181036000830152612ec781612e8b565b9050919050565b60008154612edb81612598565b612ee5818661217b565b94506001821660008114612f005760018114612f1657612f49565b60ff198316865281151560200286019350612f49565b612f1f856125c9565b60005b83811015612f4157815481890152600182019150602081019050612f22565b808801955050505b50505092915050565b6000604082019050612f67600083018561216c565b8181036020830152612f798184612ece565b90509392505050565b600081519050612f9181611c29565b92915050565b600060208284031215612fad57612fac611c15565b5b6000612fbb84828501612f82565b91505092915050565b6000604082019050612fd96000830186611e35565b8181036020830152612fec81848661284a565b9050949350505050565b600061300182611c1f565b915061300c83611c1f565b92508282039050818111156130245761302361289b565b5b92915050565b60008154905061303981612598565b9050919050565b81810361304e575050613126565b6130578261302a565b67ffffffffffffffff8111156130705761306f61253a565b5b61307a8254612598565b6130858282856126de565b6000601f8311600181146130b457600084156130a2578287015490505b6130ac858261274f565b86555061311f565b601f1984166130c2876125c9565b96506130cd866125c9565b60005b828110156130f5578489015482556001820191506001850194506020810190506130d0565b86831015613112578489015461310e601f891682612731565b8355505b6001600288020188555050505b5050505050505b565b7f4e487b7100000000000000000000000000000000000000000000000000000000600052603160045260246000fd5b7f50656e64696e6720636c61696d206e6f7420666f756e64000000000000000000600082015250565b600061318d60178361217b565b915061319882613157565b602082019050919050565b600060208201905081810360008301526131bc81613180565b905091905056fea26469706673582212205f874df120a6d86e6cc4e895ff6512b5cd5c7bc4cf26e9a95f574749db5d598264736f6c63430008140033",
  "linkReferences": {},
  "deployedLinkReferences": {}
}