{
  "_format": "hh-sol-artifact-1",
  "contractName": "GitBountyBadge",
  "sourceName": "contracts/GitBountyBadge.sol",
  "abi": [
    {
      "inputs": [],
      "stateMutability": "nonpayable",
      "type": "constructor"
    },
    {
      "inputs": [
        {
          "internalType": "address",
          "name": "sender",
          "type": "address"
        },
        {
          "internalType": "uint256",
          "name": "tokenId",
          "type": "uint256"
        },
        {
          "internalType": "address",
          "name": "owner",
          "type": "address"
        }
      ],
      "name": "ERC721IncorrectOwner",
      "type": "error"
    },
    {
      "inputs": [
        {
          "internalType": "address",
          "name": "operator",
          "type": "address"
        },
        {
          "internalType": "uint256",
          "name": "tokenId",
          "type": "uint256"
        }
      ],
      "name": "ERC721InsufficientApproval",
      "type": "error"
    },
    {
      "inputs": [
        {
          "internalType": "address",
          "name": "approver",
          "type": "address"
        }
      ],
      "name": "ERC721InvalidApprover",
      "type": "error"
    },
    {
      "inputs": [
        {
          "internalType": "address",
          "name": "operator",
          "type": "address"
        }
      ],
      "name": "ERC721InvalidOperator",
      "type": "error"
    },
    {
      "inputs": [
        {
          "internalType": "address",
          "name": "owner",
          "type": "address"
        }
      ],
      "name": "ERC721InvalidOwner",
      "type": "error"
    },
    {
      "inputs": [
        {
          "internalType": "address",
          "name": "receiver",
          "type": "address"
        }
      ],
      "name": "ERC721InvalidReceiver",
      "type": "error"
    },
    {
      "inputs": [
        {
          "internalType": "address",
          "name": "sender",
          "type": "address"
        }
      ],
      "name": "ERC721InvalidSender",
      "type": "error"
    },
    {
      "inputs": [
        {
          "internalType": "uint256",
          "name": "tokenId",
          "type": "uint256"
        }
      ],
      "name": "ERC721NonexistentToken",
      "type": "error"
    },
    {
      "inputs": [
        {
          "internalType": "address",
          "name": "owner",
          "type": "address"
        }
      ],
      "name": "OwnableInvalidOwner",
      "type": "error"
    },
    {
      "inputs": [
        {
          "internalType": "address",
          "name": "account",
          "type": "address"
        }
      ],
      "name": "OwnableUnauthorizedAccount",
      "type": "error"
    },
    {
      "anonymous": false,
      "inputs": [
        {
          "indexed": true,
          "internalType": "address",
          "name": "owner",
          "type": "address"
        },
        {
          "indexed": true,
          "internalType": "address",
          "name": "approved",
          "type": "address"
        },
        {
          "indexed": true,
          "internalType": "uint256",
          "name": "tokenId",
          "type": "uint256"
        }
      ],
      "name": "Approval",
      "type": "event"
    },
    {
      "anonymous": false,
      "inputs": [
        {
          "indexed": true,
          "internalType": "address",
          "name": "owner",
          "type": "address"
        },
        {
          "indexed": true,
          "internalType": "address",
          "name": "operator",
          "type": "address"
        },
        {
          "indexed": false,
          "internalType": "bool",
          "name": "approved",
          "type": "bool"
        }
      ],
      "name": "ApprovalForAll",
      "type": "event"
    },
    {
      "anonymous": false,
      "inputs": [
        {
          "indexed": true,
          "internalType": "uint256",
          "name": "tokenId",
          "type": "uint256"
        },
        {
          "indexed": true,
          "internalType": "address",
          "name": "recipient",
          "type": "address"
        },
        {
          "indexed": false,
          "internalType": "string",
          "name": "uri",
          "type": "string"
        }
      ],
      "name": "BadgeMinted",
      "type": "event"
    },
    {
      "anonymous": false,
      "inputs": [
        {
          "indexed": false,
          "internalType": "uint256",
          "name": "_fromTokenId",
          "type": "uint256"
        },
        {
          "indexed": false,
          "internalType": "uint256",
          "name": "_toTokenId",
          "type": "uint256"
        }
      ],
      "name": "BatchMetadataUpdate",
      "type": "event"
    },
    {
      "anonymous": false,
      "inputs": [
        {
          "indexed": false,
          "internalType": "uint256",
          "name": "_tokenId",
          "type": "uint256"
        }
      ],
      "name": "MetadataUpdate",
      "type": "event"
    },
    {
      "anonymous": false,
      "inputs": [
        {
          "indexed": true,
          "internalType": "address",
          "name": "previousOwner",
          "type": "address"
        },
        {
          "indexed": true,
          "internalType": "address",
          "name": "newOwner",
          "type": "address"
        }
      ],
      "name": "OwnershipTransferred",
      "type": "event"
    },
    {
      "anonymous": false,
      "inputs": [
        {
          "indexed": true,
          "internalType": "address",
          "name": "from",
          "type": "address"
        },
        {
          "indexed": true,
          "internalType": "address",
          "name": "to",
          "type": "address"
        },
        {
          "indexed": true,
          "internalType": "uint256",
          "name": "tokenId",
          "type": "uint256"
        }
      ],
      "name": "Transfer",
      "type": "event"
    },
    {
      "inputs": [
        {
          "internalType": "address",
          "name": "to",
          "type": "address"
        },
        {
          "internalType": "uint256",
          "name": "tokenId",
          "type": "uint256"
        }
      ],
      "name": "approve",
      "outputs": [],
      "stateMutability": "nonpayable",
      "type": "function"
    },
    {
      "inputs": [
        {
          "internalType": "address",
          "name": "owner",
          "type": "address"
        }
      ],
      "name": "balanceOf",
      "outputs": [
        {
          "internalType": "uint256",
          "name": "",
          "type": "uint256"
        }
      ],
      "stateMutability": "view",
      "type": "function"
    },
    {
      "inputs": [
        {
          "internalType": "uint256",
          "name": "tokenId",
          "type": "uint256"
        }
      ],
      "name": "getApproved",
      "outputs": [
        {
          "internalType": "address",
          "name": "",
          "type": "address"
        }
      ],
      "stateMutability": "view",
      "type": "function"
    },
    {
      "inputs": [
        {
          "internalType": "address",
          "name": "owner",
          "type": "address"
        },
        {
          "internalType": "address",
          "name": "operator",
          "type": "address"
        }
      ],
      "name": "isApprovedForAll",
      "outputs": [
        {
          "internalType": "bool",
          "name": "",
          "type": "bool"
        }
      ],
      "stateMutability": "view",
      "type": "function"
    },
    {
      "inputs": [
        {
          "internalType": "address",
          "name": "recipient",
          "type": "address"
        },
        {
          "internalType": "string",
          "name": "uri",
          "type": "string"
        }
      ],
      "name": "mintBadge",
      "outputs": [
        {
          "internalType": "uint256",
          "name": "",
          "type": "uint256"
        }
      ],
      "stateMutability": "nonpayable",
      "type": "function"
    },
    {
      "inputs": [],
      "name": "name",
      "outputs": [
        {
          "internalType": "string",
          "name": "",
          "type": "string"
        }
      ],
      "stateMutability": "view",
      "type": "function"
    },
    {
      "inputs": [],
      "name": "nextTokenId",
      "outputs": [
        {
          "internalType": "uint256",
          "name": "",
          "type": "uint256"
        }
      ],
      "stateMutability": "view",
      "type": "function"
    },
    {
      "inputs": [],
      "name": "owner",
      "outputs": [
        {
          "internalType": "address",
          "name": "",
          "type": "address"
        }
      ],
      "stateMutability": "view",
      "type": "function"
    },
    {
      "inputs": [
        {
          "internalType": "uint256",
          "name": "tokenId",
          "type": "uint256"
        }
      ],
      "name": "ownerOf",
      "outputs": [
        {
          "internalType": "address",
          "name": "",
          "type": "address"
        }
      ],
      "stateMutability": "view",
      "type": "function"
    },
    {
      "inputs": [],
      "name": "renounceOwnership",
      "outputs": [],
      "stateMutability": "nonpayable",
      "type": "function"
    },
    {
      "inputs": [
        {
          "internalType": "address",
          "name": "from",
          "type": "address"
        },
        {
          "internalType": "address",
          "name": "to",
          "type": "address"
        },
        {
          "internalType": "uint256",
          "name": "tokenId",
          "type": "uint256"
        }
      ],
      "name": "safeTransferFrom",
      "outputs": [],
      "stateMutability": "nonpayable",
      "type": "function"
    },
    {
      "inputs": [
        {
          "internalType": "address",
          "name": "from",
          "type": "address"
        },
        {
          "internalType": "address",
          "name": "to",
          "type": "address"
        },
        {
          "internalType": "uint256",
          "name": "tokenId",
          "type": "uint256"
        },
        {
          "internalType": "bytes",
          "name": "data",
          "type": "bytes"
        }
      ],
      "name": "safeTransferFrom",
      "outputs": [],
      "stateMutability": "nonpayable",
      "type": "function"
    },
    {
      "inputs": [
        {
          "internalType": "address",
          "name": "operator",
          "type": "address"
        },
        {
          "internalType": "bool",
          "name": "approved",
          "type": "bool"
        }
      ],
      "name": "setApprovalForAll",
      "outputs": [],
      "stateMutability": "nonpayable",
      "type": "function"
    },
    {
      "inputs": [
        {
          "internalType": "bytes4",
          "name": "interfaceId",
          "type": "bytes4"
        }
      ],
      "name": "supportsInterface",
      "outputs": [
        {
          "internalType": "bool",
          "name": "",
          "type": "bool"
        }
      ],
      "stateMutability": "view",
      "type": "function"
    },
    {
      "inputs": [],
      "name": "symbol",
      "outputs": [
        {
          "internalType": "string",
          "name": "",
          "type": "string"
        }
      ],
      "stateMutability": "view",
      "type": "function"
    },
    {
      "inputs": [
        {
          "internalType": "uint256",
          "name": "tokenId",
          "type": "uint256"
        }
      ],
      "name": "tokenURI",
      "outputs": [
        {
          "internalType": "string",
          "name": "",
          "type": "string"
        }
      ],
      "stateMutability": "view",
      "type": "function"
    },
    {
      "inputs": [
        {
          "internalType": "address",
          "name": "from",
          "type": "address"
        },
        {
          "internalType": "address",
          "name": "to",
          "type": "address"
        },
        {
          "internalType": "uint256",
          "name": "tokenId",
          "type": "uint256"
        }
      ],
      "name": "transferFrom",
      "outputs": [],
      "stateMutability": "nonpayable",
      "type": "function"
    },
    {
      "inputs": [
        {
          "internalType": "address",
          "name": "newOwner",
          "type": "address"
        }
      ],
      "name": "transferOwnership",
      "outputs": [],
      "stateMutability": "nonpayable",
      "type": "function"
    }
  ],
  "bytecode": "0x608060405260016008553480156200001657600080fd5b50336040518060400160405280601081526020017f476974426f756e747920426164676573000000000000000000000000000000008152506040518060400160405280600381526020017f4742420000000000000000000000000000000000000000000000000000000000815250816000908162000095919062000477565b508060019081620000a7919062000477565b505050600073ffffffffffffffffffffffffffffffffffffffff168173ffffffffffffffffffffffffffffffffffffffff16036200011f5760006040517f1e4fbdf7000000000000000000000000000000000000000000000000000000008152600401620001169190620005a3565b60405180910390fd5b62000130816200013760201b60201c565b50620005c0565b6000600760009054906101000a900473ffffffffffffffffffffffffffffffffffffffff16905081600760006101000a81548173ffffffffffffffffffffffffffffffffffffffff021916908373ffffffffffffffffffffffffffffffffffffffff1602179055508173ffffffffffffffffffffffffffffffffffffffff168173ffffffffffffffffffffffffffffffffffffffff167f8be0079c531659141344cd1fd0a4f28419497f9722a3daafe3b4186f6b6457e060405160405180910390a35050565b600081519050919050565b7f4e487b7100000000000000000000000000000000000000000000000000000000600052604160045260246000fd5b7f4e487b7100000000000000000000000000000000000000000000000000000000600052602260045260246000fd5b600060028204905060018216806200027f57607f821691505b60208210810362000295576200029462000237565b5b50919050565b60008190508160005260206000209050919050565b60006020601f8301049050919050565b600082821b905092915050565b600060088302620002ff7fffffffffffffffffffffffffffffffffffffffffffffffffffffffffffffffff82620002c0565b6200030b8683620002c0565b95508019841693508086168417925050509392505050565b6000819050919050565b6000819050919050565b600062000358620003526200034c8462000323565b6200032d565b62000323565b9050919050565b6000819050919050565b620003748362000337565b6200038c62000383826200035f565b848454620002cd565b825550505050565b600090565b620003a362000394565b620003b081848462000369565b505050565b5b81811015620003d857620003cc60008262000399565b600181019050620003b6565b5050565b601f8211156200042757620003f1816200029b565b620003fc84620002b0565b810160208510156200040c578190505b620004246200041b85620002b0565b830182620003b5565b50505b505050565b600082821c905092915050565b60006200044c600019846008026200042c565b1980831691505092915050565b600062000467838362000439565b9150826002028217905092915050565b6200048282620001fd565b67ffffffffffffffff8111156200049e576200049d62000208565b5b620004aa825462000266565b620004b7828285620003dc565b600060209050601f831160018114620004ef5760008415620004da578287015190505b620004e6858262000459565b86555062000556565b601f198416620004ff866200029b565b60005b82811015620005295784890151825560018201915060208501945060208101905062000502565b8683101562000549578489015162000545601f89168262000439565b8355505b6001600288020188555050505b505050505050565b600073ffffffffffffffffffffffffffffffffffffffff82169050919050565b60006200058b826200055e565b9050919050565b6200059d816200057e565b82525050565b6000602082019050620005ba600083018462000592565b92915050565b6128ed80620005d06000396000f3fe608060405234801561001057600080fd5b50600436106101165760003560e01c8063715018a6116100a2578063a22cb46511610071578063a22cb465146102e1578063b88d4fde146102fd578063c87b56dd14610319578063e985e9c514610349578063f2fde38b1461037957610116565b8063715018a61461027d57806375794a3c146102875780638da5cb5b146102a557806395d89b41146102c357610116565b806323b872dd116100e957806323b872dd146101b557806342842e0e146101d15780636352211e146101ed5780636b2bafc81461021d57806370a082311461024d57610116565b806301ffc9a71461011b57806306fdde031461014b578063081812fc14610169578063095ea7b314610199575b600080fd5b61013560048036038101906101309190611c59565b610395565b6040516101429190611ca1565b60405180910390f35b6101536103f6565b6040516101609190611d4c565b60405180910390f35b610183600480360381019061017e9190611da4565b610488565b6040516101909190611e12565b60405180910390f35b6101b360048036038101906101ae9190611e59565b6104a4565b005b6101cf60048036038101906101ca9190611e99565b6104ba565b005b6101eb60048036038101906101e69190611e99565b6105bc565b005b61020760048036038101906102029190611da4565b6105dc565b6040516102149190611e12565b60405180910390f35b61023760048036038101906102329190611f51565b6105ee565b6040516102449190611fc0565b60405180910390f35b61026760048036038101906102629190611fdb565b610780565b6040516102749190611fc0565b60405180910390f35b61028561083a565b005b61028f61084e565b60405161029c9190611fc0565b60405180910390f35b6102ad610858565b6040516102ba9190611e12565b60405180910390f35b6102cb610882565b6040516102d89190611d4c565b60405180910390f35b6102fb60048036038101906102f69190612034565b610914565b005b610317600480360381019061031291906121a4565b61092a565b005b610333600480360381019061032e9190611da4565b61094f565b6040516103409190611d4c565b60405180910390f35b610363600480360381019061035e9190612227565b610a62565b6040516103709190611ca1565b60405180910390f35b610393600480360381019061038e9190611fdb565b610af6565b005b6000634906490660e01b7bffffffffffffffffffffffffffffffffffffffffffffffffffffffff1916827bffffffffffffffffffffffffffffffffffffffffffffffffffffffff191614806103ef57506103ee82610b7c565b5b9050919050565b60606000805461040590612296565b80601f016020809104026020016040519081016040528092919081815260200182805461043190612296565b801561047e5780601f106104535761010080835404028352916020019161047e565b820191906000526020600020905b81548152906001019060200180831161046157829003601f168201915b5050505050905090565b600061049382610c5e565b5061049d82610ce6565b9050919050565b6104b682826104b1610d23565b610d2b565b5050565b600073ffffffffffffffffffffffffffffffffffffffff168273ffffffffffffffffffffffffffffffffffffffff160361052c5760006040517f64a0ae920000000000000000000000000000000000000000000000000000000081526004016105239190611e12565b60405180910390fd5b6000610540838361053b610d23565b610d3d565b90508373ffffffffffffffffffffffffffffffffffffffff168173ffffffffffffffffffffffffffffffffffffffff16146105b6578382826040517f64283d7b0000000000000000000000000000000000000000000000000000000081526004016105ad939291906122c7565b60405180910390fd5b50505050565b6105d78383836040518060200160405280600081525061092a565b505050565b60006105e782610c5e565b9050919050565b60006105f8610f57565b600073ffffffffffffffffffffffffffffffffffffffff168473ffffffffffffffffffffffffffffffffffffffff1603610667576040517f08c379a000000000000000000000000000000000000000000000000000000000815260040161065e9061234a565b60405180910390fd5b600083839050116106ad576040517f08c379a00000000000000000000000000000000000000000000000000000000081526004016106a4906123b6565b60405180910390fd5b600060085490506106be8582610fde565b61070c8185858080601f016020809104026020016040519081016040528093929190818152602001838380828437600081840152601f19601f82011690508083019250505050505050610ffc565b6008600081548092919061071f90612405565b91905055508473ffffffffffffffffffffffffffffffffffffffff16817fa108f50d449df7d19fce9d9e17f3c0eacc41da12350726a54ddd3a20257d4872868660405161076d92919061247a565b60405180910390a3809150509392505050565b60008073ffffffffffffffffffffffffffffffffffffffff168273ffffffffffffffffffffffffffffffffffffffff16036107f35760006040517f89c62b640000000000000000000000000000000000000000000000000000000081526004016107ea9190611e12565b60405180910390fd5b600360008373ffffffffffffffffffffffffffffffffffffffff1673ffffffffffffffffffffffffffffffffffffffff168152602001908152602001600020549050919050565b610842610f57565b61084c6000611058565b565b6000600854905090565b6000600760009054906101000a900473ffffffffffffffffffffffffffffffffffffffff16905090565b60606001805461089190612296565b80601f01602080910402602001604051908101604052809291908181526020018280546108bd90612296565b801561090a5780601f106108df5761010080835404028352916020019161090a565b820191906000526020600020905b8154815290600101906020018083116108ed57829003601f168201915b5050505050905090565b61092661091f610d23565b838361111e565b5050565b6109358484846104ba565b610949610940610d23565b8585858561128d565b50505050565b606061095a82610c5e565b50600060066000848152602001908152602001600020805461097b90612296565b80601f01602080910402602001604051908101604052809291908181526020018280546109a790612296565b80156109f45780601f106109c9576101008083540402835291602001916109f4565b820191906000526020600020905b8154815290600101906020018083116109d757829003601f168201915b505050505090506000610a0561143e565b90506000815103610a1a578192505050610a5d565b600082511115610a4f578082604051602001610a379291906124da565b60405160208183030381529060405292505050610a5d565b610a5884611455565b925050505b919050565b6000600560008473ffffffffffffffffffffffffffffffffffffffff1673ffffffffffffffffffffffffffffffffffffffff16815260200190815260200160002060008373ffffffffffffffffffffffffffffffffffffffff1673ffffffffffffffffffffffffffffffffffffffff16815260200190815260200160002060009054906101000a900460ff16905092915050565b610afe610f57565b600073ffffffffffffffffffffffffffffffffffffffff168173ffffffffffffffffffffffffffffffffffffffff1603610b705760006040517f1e4fbdf7000000000000000000000000000000000000000000000000000000008152600401610b679190611e12565b60405180910390fd5b610b7981611058565b50565b60007f80ac58cd000000000000000000000000000000000000000000000000000000007bffffffffffffffffffffffffffffffffffffffffffffffffffffffff1916827bffffffffffffffffffffffffffffffffffffffffffffffffffffffff19161480610c4757507f5b5e139f000000000000000000000000000000000000000000000000000000007bffffffffffffffffffffffffffffffffffffffffffffffffffffffff1916827bffffffffffffffffffffffffffffffffffffffffffffffffffffffff1916145b80610c575750610c56826114be565b5b9050919050565b600080610c6a83611528565b9050600073ffffffffffffffffffffffffffffffffffffffff168173ffffffffffffffffffffffffffffffffffffffff1603610cdd57826040517f7e273289000000000000000000000000000000000000000000000000000000008152600401610cd49190611fc0565b60405180910390fd5b80915050919050565b60006004600083815260200190815260200160002060009054906101000a900473ffffffffffffffffffffffffffffffffffffffff169050919050565b600033905090565b610d388383836001611565565b505050565b600080610d4984611528565b9050600073ffffffffffffffffffffffffffffffffffffffff168373ffffffffffffffffffffffffffffffffffffffff1614610d8b57610d8a81848661172a565b5b600073ffffffffffffffffffffffffffffffffffffffff168173ffffffffffffffffffffffffffffffffffffffff1614610e1c57610dcd600085600080611565565b6001600360008373ffffffffffffffffffffffffffffffffffffffff1673ffffffffffffffffffffffffffffffffffffffff168152602001908152602001600020600082825403925050819055505b600073ffffffffffffffffffffffffffffffffffffffff168573ffffffffffffffffffffffffffffffffffffffff1614610e9f576001600360008773ffffffffffffffffffffffffffffffffffffffff1673ffffffffffffffffffffffffffffffffffffffff168152602001908152602001600020600082825401925050819055505b846002600086815260200190815260200160002060006101000a81548173ffffffffffffffffffffffffffffffffffffffff021916908373ffffffffffffffffffffffffffffffffffffffff160217905550838573ffffffffffffffffffffffffffffffffffffffff168273ffffffffffffffffffffffffffffffffffffffff167fddf252ad1be2c89b69c2b068fc378daa952ba7f163c4a11628f55a4df523b3ef60405160405180910390a4809150509392505050565b610f5f610d23565b73ffffffffffffffffffffffffffffffffffffffff16610f7d610858565b73ffffffffffffffffffffffffffffffffffffffff1614610fdc57610fa0610d23565b6040517f118cdaa7000000000000000000000000000000000000000000000000000000008152600401610fd39190611e12565b60405180910390fd5b565b610ff88282604051806020016040528060008152506117ee565b5050565b8060066000848152602001908152602001600020908161101c91906126aa565b507ff8e1a15aba9398e019f0b49df1a4fde98ee17ae345cb5f6b5e2c27f5033e8ce78260405161104c9190611fc0565b60405180910390a15050565b6000600760009054906101000a900473ffffffffffffffffffffffffffffffffffffffff16905081600760006101000a81548173ffffffffffffffffffffffffffffffffffffffff021916908373ffffffffffffffffffffffffffffffffffffffff1602179055508173ffffffffffffffffffffffffffffffffffffffff168173ffffffffffffffffffffffffffffffffffffffff167f8be0079c531659141344cd1fd0a4f28419497f9722a3daafe3b4186f6b6457e060405160405180910390a35050565b600073ffffffffffffffffffffffffffffffffffffffff168273ffffffffffffffffffffffffffffffffffffffff160361118f57816040517f5b08ba180000000000000000000000000000000000000000000000000000000081526004016111869190611e12565b60405180910390fd5b80600560008573ffffffffffffffffffffffffffffffffffffffff1673ffffffffffffffffffffffffffffffffffffffff16815260200190815260200160002060008473ffffffffffffffffffffffffffffffffffffffff1673ffffffffffffffffffffffffffffffffffffffff16815260200190815260200160002060006101000a81548160ff0219169083151502179055508173ffffffffffffffffffffffffffffffffffffffff168373ffffffffffffffffffffffffffffffffffffffff167f17307eab39ab6107e8899845ad3d59bd9653f200f220920489ca2b5937696c31836040516112809190611ca1565b60405180910390a3505050565b60008373ffffffffffffffffffffffffffffffffffffffff163b1115611437578273ffffffffffffffffffffffffffffffffffffffff1663150b7a02868685856040518563ffffffff1660e01b81526004016112ec94939291906127d1565b6020604051808303816000875af192505050801561132857506040513d601f19601f820116820180604052508101906113259190612832565b60015b6113ac573d8060008114611358576040519150601f19603f3d011682016040523d82523d6000602084013e61135d565b606091505b5060008151036113a457836040517f64a0ae9200000000000000000000000000000000000000000000000000000000815260040161139b9190611e12565b60405180910390fd5b805160208201fd5b63150b7a0260e01b7bffffffffffffffffffffffffffffffffffffffffffffffffffffffff1916817bffffffffffffffffffffffffffffffffffffffffffffffffffffffff19161461143557836040517f64a0ae9200000000000000000000000000000000000000000000000000000000815260040161142c9190611e12565b60405180910390fd5b505b5050505050565b606060405180602001604052806000815250905090565b606061146082610c5e565b50600061146b61143e565b9050600081511161148b57604051806020016040528060008152506114b6565b8061149584611812565b6040516020016114a69291906124da565b6040516020818303038152906040525b915050919050565b60007f01ffc9a7000000000000000000000000000000000000000000000000000000007bffffffffffffffffffffffffffffffffffffffffffffffffffffffff1916827bffffffffffffffffffffffffffffffffffffffffffffffffffffffff1916149050919050565b60006002600083815260200190815260200160002060009054906101000a900473ffffffffffffffffffffffffffffffffffffffff169050919050565b808061159e5750600073ffffffffffffffffffffffffffffffffffffffff168273ffffffffffffffffffffffffffffffffffffffff1614155b156116d25760006115ae84610c5e565b9050600073ffffffffffffffffffffffffffffffffffffffff168373ffffffffffffffffffffffffffffffffffffffff161415801561161957508273ffffffffffffffffffffffffffffffffffffffff168173ffffffffffffffffffffffffffffffffffffffff1614155b801561162c575061162a8184610a62565b155b1561166e57826040517fa9fbf51f0000000000000000000000000000000000000000000000000000000081526004016116659190611e12565b60405180910390fd5b81156116d057838573ffffffffffffffffffffffffffffffffffffffff168273ffffffffffffffffffffffffffffffffffffffff167f8c5be1e5ebec7d5bd14f71427d1e84f3dd0314c0f7b2291e5b200ac8c7c3b92560405160405180910390a45b505b836004600085815260200190815260200160002060006101000a81548173ffffffffffffffffffffffffffffffffffffffff021916908373ffffffffffffffffffffffffffffffffffffffff16021790555050505050565b6117358383836118e0565b6117e957600073ffffffffffffffffffffffffffffffffffffffff168373ffffffffffffffffffffffffffffffffffffffff16036117aa57806040517f7e2732890000000000000000000000000000000000000000000000000000000081526004016117a19190611fc0565b60405180910390fd5b81816040517f177e802f0000000000000000000000000000000000000000000000000000000081526004016117e092919061285f565b60405180910390fd5b505050565b6117f883836119a1565b61180d611803610d23565b600085858561128d565b505050565b60606000600161182184611a9a565b01905060008167ffffffffffffffff8111156118405761183f612079565b5b6040519080825280601f01601f1916602001820160405280156118725781602001600182028036833780820191505090505b509050600082602083010190505b6001156118d5578080600190039150507f3031323334353637383961626364656600000000000000000000000000000000600a86061a8153600a85816118c9576118c8612888565b5b04945060008503611880575b819350505050919050565b60008073ffffffffffffffffffffffffffffffffffffffff168373ffffffffffffffffffffffffffffffffffffffff161415801561199857508273ffffffffffffffffffffffffffffffffffffffff168473ffffffffffffffffffffffffffffffffffffffff16148061195957506119588484610a62565b5b8061199757508273ffffffffffffffffffffffffffffffffffffffff1661197f83610ce6565b73ffffffffffffffffffffffffffffffffffffffff16145b5b90509392505050565b600073ffffffffffffffffffffffffffffffffffffffff168273ffffffffffffffffffffffffffffffffffffffff1603611a135760006040517f64a0ae92000000000000000000000000000000000000000000000000000000008152600401611a0a9190611e12565b60405180910390fd5b6000611a2183836000610d3d565b9050600073ffffffffffffffffffffffffffffffffffffffff168173ffffffffffffffffffffffffffffffffffffffff1614611a955760006040517f73c6ac6e000000000000000000000000000000000000000000000000000000008152600401611a8c9190611e12565b60405180910390fd5b505050565b600080600090507a184f03e93ff9f4daa797ed6e38ed64bf6a1f0100000000000000008310611af8577a184f03e93ff9f4daa797ed6e38ed64bf6a1f0100000000000000008381611aee57611aed612888565b5b0492506040810190505b6d04ee2d6d415b85acef81000000008310611b35576d04ee2d6d415b85acef81000000008381611b2b57611b2a612888565b5b0492506020810190505b662386f26fc100008310611b6457662386f26fc100008381611b5a57611b59612888565b5b0492506010810190505b6305f5e1008310611b8d576305f5e1008381611b8357611b82612888565b5b0492506008810190505b6127108310611bb2576127108381611ba857611ba7612888565b5b0492506004810190505b60648310611bd55760648381611bcb57611bca612888565b5b0492506002810190505b600a8310611be4576001810190505b80915050919050565b6000604051905090565b600080fd5b600080fd5b60007fffffffff0000000000000000000000000000000000000000000000000000000082169050919050565b611c3681611c01565b8114611c4157600080fd5b50565b600081359050611c5381611c2d565b92915050565b600060208284031215611c6f57611c6e611bf7565b5b6000611c7d84828501611c44565b91505092915050565b60008115159050919050565b611c9b81611c86565b82525050565b6000602082019050611cb66000830184611c92565b92915050565b600081519050919050565b600082825260208201905092915050565b60005b83811015611cf6578082015181840152602081019050611cdb565b60008484015250505050565b6000601f19601f8301169050919050565b6000611d1e82611cbc565b611d288185611cc7565b9350611d38818560208601611cd8565b611d4181611d02565b840191505092915050565b60006020820190508181036000830152611d668184611d13565b905092915050565b6000819050919050565b611d8181611d6e565b8114611d8c57600080fd5b50565b600081359050611d9e81611d78565b92915050565b600060208284031215611dba57611db9611bf7565b5b6000611dc884828501611d8f565b91505092915050565b600073ffffffffffffffffffffffffffffffffffffffff82169050919050565b6000611dfc82611dd1565b9050919050565b611e0c81611df1565b82525050565b6000602082019050611e276000830184611e03565b92915050565b611e3681611df1565b8114611e4157600080fd5b50565b600081359050611e5381611e2d565b92915050565b60008060408385031215611e7057611e6f611bf7565b5b6000611e7e85828601611e44565b9250506020611e8f85828601611d8f565b9150509250929050565b600080600060608486031215611eb257611eb1611bf7565b5b6000611ec086828701611e44565b9350506020611ed186828701611e44565b9250506040611ee286828701611d8f565b9150509250925092565b600080fd5b600080fd5b600080fd5b60008083601f840112611f1157611f10611eec565b5b8235905067ffffffffffffffff811115611f2e57611f2d611ef1565b5b602083019150836001820283011115611f4a57611f49611ef6565b5b9250929050565b600080600060408486031215611f6a57611f69611bf7565b5b6000611f7886828701611e44565b935050602084013567ffffffffffffffff811115611f9957611f98611bfc565b5b611fa586828701611efb565b92509250509250925092565b611fba81611d6e565b82525050565b6000602082019050611fd56000830184611fb1565b92915050565b600060208284031215611ff157611ff0611bf7565b5b6000611fff84828501611e44565b91505092915050565b61201181611c86565b811461201c57600080fd5b50565b60008135905061202e81612008565b92915050565b6000806040838503121561204b5761204a611bf7565b5b600061205985828601611e44565b925050602061206a8582860161201f565b9150509250929050565b600080fd5b7f4e487b7100000000000000000000000000000000000000000000000000000000600052604160045260246000fd5b6120b182611d02565b810181811067ffffffffffffffff821117156120d0576120cf612079565b5b80604052505050565b60006120e3611bed565b90506120ef82826120a8565b919050565b600067ffffffffffffffff82111561210f5761210e612079565b5b61211882611d02565b9050602081019050919050565b82818337600083830152505050565b6000612147612142846120f4565b6120d9565b90508281526020810184848401111561216357612162612074565b5b61216e848285612125565b509392505050565b600082601f83011261218b5761218a611eec565b5b813561219b848260208601612134565b91505092915050565b600080600080608085870312156121be576121bd611bf7565b5b60006121cc87828801611e44565b94505060206121dd87828801611e44565b93505060406121ee87828801611d8f565b925050606085013567ffffffffffffffff81111561220f5761220e611bfc565b5b61221b87828801612176565b91505092959194509250565b6000806040838503121561223e5761223d611bf7565b5b600061224c85828601611e44565b925050602061225d85828601611e44565b9150509250929050565b7f4e487b7100000000000000000000000000000000000000000000000000000000600052602260045260246000fd5b600060028204905060018216806122ae57607f821691505b6020821081036122c1576122c0612267565b5b50919050565b60006060820190506122dc6000830186611e03565b6122e96020830185611fb1565b6122f66040830184611e03565b949350505050565b7f496e76616c69642077616c6c6574206164647265737300000000000000000000600082015250565b6000612334601683611cc7565b915061233f826122fe565b602082019050919050565b6000602082019050818103600083015261236381612327565b9050919050565b7f5552492063616e6e6f7420626520656d70747900000000000000000000000000600082015250565b60006123a0601383611cc7565b91506123ab8261236a565b602082019050919050565b600060208201905081810360008301526123cf81612393565b9050919050565b7f4e487b7100000000000000000000000000000000000000000000000000000000600052601160045260246000fd5b600061241082611d6e565b91507fffffffffffffffffffffffffffffffffffffffffffffffffffffffffffffffff8203612442576124416123d6565b5b600182019050919050565b60006124598385611cc7565b9350612466838584612125565b61246f83611d02565b840190509392505050565b6000602082019050818103600083015261249581848661244d565b90509392505050565b600081905092915050565b60006124b482611cbc565b6124be818561249e565b93506124ce818560208601611cd8565b80840191505092915050565b60006124e682856124a9565b91506124f282846124a9565b91508190509392505050565b60008190508160005260206000209050919050565b60006020601f8301049050919050565b600082821b905092915050565b6000600883026125607fffffffffffffffffffffffffffffffffffffffffffffffffffffffffffffffff82612523565b61256a8683612523565b95508019841693508086168417925050509392505050565b6000819050919050565b60006125a76125a261259d84611d6e565b612582565b611d6e565b9050919050565b6000819050919050565b6125c18361258c565b6125d56125cd826125ae565b848454612530565b825550505050565b600090565b6125ea6125dd565b6125f58184846125b8565b505050565b5b818110156126195761260e6000826125e2565b6001810190506125fb565b5050565b601f82111561265e5761262f816124fe565b61263884612513565b81016020851015612647578190505b61265b61265385612513565b8301826125fa565b50505b505050565b600082821c905092915050565b600061268160001984600802612663565b1980831691505092915050565b600061269a8383612670565b9150826002028217905092915050565b6126b382611cbc565b67ffffffffffffffff8111156126cc576126cb612079565b5b6126d68254612296565b6126e182828561261d565b600060209050601f8311600181146127145760008415612702578287015190505b61270c858261268e565b865550612774565b601f198416612722866124fe565b60005b8281101561274a57848901518255600182019150602085019450602081019050612725565b868310156127675784890151612763601f891682612670565b8355505b6001600288020188555050505b505050505050565b600081519050919050565b600082825260208201905092915050565b60006127a38261277c565b6127ad8185612787565b93506127bd818560208601611cd8565b6127c681611d02565b840191505092915050565b60006080820190506127e66000830187611e03565b6127f36020830186611e03565b6128006040830185611fb1565b81810360608301526128128184612798565b905095945050505050565b60008151905061282c81611c2d565b92915050565b60006020828403121561284857612847611bf7565b5b60006128568482850161281d565b91505092915050565b60006040820190506128746000830185611e03565b6128816020830184611fb1565b9392505050565b7f4e487b7100000000000000000000000000000000000000000000000000000000600052601260045260246000fdfea26469706673582212203a57717ad9be3692452e25ef47050ac80d32384fd484bec4b1ebfe8cee366c9264736f6c63430008140033",
  "linkReferences": {},
  "deployedLinkReferences": {}
}